:020000040800F2
:10000000F009002001010008631B000829190008FD
:10001000611B0008FD030008991F00080000000094
:10002000000000000000000000000000671B000846
:100030001104000800000000651B0008811B000877
:100040001B0100081B0100081B0100081B01000820
:100050001B0100081B0100081B0100081B01000810
:100060001B0100081B0100081B0100081B01000800
:100070001B0100081B0100081B0100081B010008F0
:100080001B0100081B0100081B0100081B010008E0
:100090001B0100081B0100081B0100081B010008D0
:1000A0001B0100081B0100081B0100081B010008C0
:1000B000D91B0008F11B00081B0100081B010008E8
:1000C0001B0100081B0100081B0100081B010008A0
:1000D0001B0100081B010008711F0008851F000894
:1000E0001B0100081B0100081B010008DFF80CD0F1
:1000F00000F0F6F80048004715270008F009002036
:100100000648804706480047FEE7FEE7FEE7FEE7B1
:10011000FEE7FEE7FEE7FEE7FEE7FEE7D51B000889
:10012000ED000008202A04DB203A21FA02F0002129
:10013000704721FA02F3D040C2F1200291400843F7
:100140001946704740EA01039B0703D009E008C93C
:10015000121F08C0042AFAD203E011F8013B00F88C
:10016000013B521EF9D27047D2B201E000F8012BD8
:10017000491EFBD270470022F6E710B513460A4627
:1001800004461946FFF7F0FF204610BD30B505467E
:100190002A460B4612F8010B13F8014B08B1A04296
:1001A000F8D01CB1002802D06D1CF1E7284630BD04
:1001B00010B5044604E00B7800F8013B03B1491C7C
:1001C000521EF8D2204610BD421C10F8011B002917
:1001D000FBD1801A704710B5002200E0521C835CEE
:1001E0008C5CA34201D1002BF8D1D8B2E1B2401A05
:1001F00010BD70B5064601F005FF046805460A22E9
:100200000021304600F033F82C6070BD2DE9F05F1E
:100210000546002092469B46884606468146402475
:100220001BE02846414647462246FFF77BFF5346E0
:100230005A46C01A914110D311461846224600F082
:1002400061F82D1A67EB01084F4622460120002174
:1002500000F058F817EB00094E41201EA4F10104EC
:10026000DFDC484631462A464346BDE8F09F2DE98B
:10027000F04791460F4680460446002614F8015B7D
:100280002DB100F04FF80068405DC007F6D12B2D6E
:1002900002D02D2D18D0641E4A463946204600F063
:1002A00045F827B13968A14201D1C7F8008071052E
:1002B0004FF002040BD54042002803DD01F0A2FEFE
:1002C0000460A007BDE8F08746F48066E4E70028F4
:1002D000F8DA01F097FE04606FF00040F2E70000EA
:1002E000064C074D06E0E06840F0010394E8070083
:1002F00098471034AC42F6D3FFF7FCFE942E00086A
:10030000B42E0008202A04DB203A00FA02F1002073
:1003100070479140C2F1200320FA03F31943904043
:100320007047000000487047282D00082DE9F05F55
:1003300082460078002715468B460AF10104B9462B
:10034000302801D09DB113E014F8010B0127782863
:1003500003D0582801D045B10AE00DB1102D07D1C6
:100360000027102514F8010B02E0082500E00A25FB
:100370000026B0460EE005FB080005FB06F101274C
:1003800001EB10461FFA80F8B6F5803F00D3B9465E
:1003900014F8010B294600F018F80028EBDABBF13D
:1003A000000F05D00FB1641E00E05446CBF80040AA
:1003B000B9F1000F06D001F025FE02210160C81E30
:1003C000BDE8F09F48EA0640FAE73A2800D2303804
:1003D00020F02002412A01D3A2F13700884201D344
:1003E0004FF0FF30704708B5482304E000930099B0
:1003F0004A1E0092FBD2401EF8D208BDFEE7FFF76E
:10040000BABE002803D0002901D0FFF79BBE704779
:10041000704772B6FEE7000010B5002306E000BF8B
:1004200050F8234041F823405B1C9BB29342F7D322
:1004300010BD10B590F821100022022905D004212A
:10044000816380F82020012010BD01680B6823F033
:100450000E030B6001680B6823F001030B6090F83A
:100460004030C46B012101FA03F3636080F821106E
:1004700080F82020104610BD10B590F821100024FF
:10048000022903D00421816301243DE001680A6848
:1004900022F00E020A6001680A6822F001020A6076
:1004A0001A4A0168914201D1012121E0174A143210
:1004B000914201D110211BE0144A2832914201D10E
:1004C000891515E0114A3C32914201D189140FE09F
:1004D0000E4A5032914202D14FF4803108E00B4A6B
:1004E0006432914202D14FF4801101E04FF08071EB
:1004F000064A083A5160012180F82110002180F855
:100500002010416B01B18847204610BD0800024011
:1005100070B5044600F004F90546601C02D004489A
:100520000078044400F0FCF8401BA042FAD370BDF0
:10053000000000202DE9F84FDFF8B8910024A9F160
:10054000040B23460F2709F1040AABF1040EC9E09E
:100550000125A5402A40AA427DD1674ED1F804C0AA
:10056000ACEB0608B44532D014DCBCF1030F3AD032
:1005700009DCBCF1000F2AD0BCF1010F1CD0BCF18A
:10058000020F31D11DE0BCF1110F17D0BCF1120FD9
:100590002AD119E0B8F5881F19D006DCB8F5803FDC
:1005A00015D0B8F5801F1FD111E0B8F5001F0ED08F
:1005B000B8F5041F18D10AE0CB6815E0CB681B1D05
:1005C00012E0CB6808330FE0CB680C330CE08B688B
:1005D0002BB1012B4FF0080303D0456104E0042345
:1005E00002E0056100E00023FF2A01D8064601E091
:1005F00000F104064FEA840501D9A5F12005D6F8DB
:10060000008007FA05FC28EA0C0803FA05F548EA19
:100610000508C6F800804D68ED0062D5374DAE691B
:1006200046F00106AE61AD6924F0030605F0010550
:100630000095334D06EB050CDCF80850A607360F85
:1006400007FA06F825EA0805DFF8B880404503D127
:100650004FF0000817E044E0DFF8AC80404502D1DD
:100660004FF001080FE0DFF8A480404502D14FF0C1
:10067000020808E0DFF89880404502D14FF00308F7
:1006800001E04FF0040808FA06F848EA0508CCF83B
:1006900008804D68D9F80060ED024D4601D516433B
:1006A00000E096432E604D68DAF80060AD025546D2
:1006B00001D5164300E096432E604D68DBF80060DC
:1006C000AD035D4601D5164300E096432E604D68AC
:1006D000DEF80060ED03754601D5164300E0964351
:1006E0002E60641C0D682A46E5407FF431AFBDE8FA
:1006F000F88F0000080401400000111000100240B3
:100700000000014000080140000C014000100140C1
:10071000001401400AB1016170470904FBE70000C1
:1007200001488068704700000000002070B5040098
:1007300025D094F83D00002520B984F83C5020468F
:1007400000F0B8F8242084F83D002068016821F00A
:10075000010101602068016841F4004101602068E6
:10076000016821F40041016000F00AFA4D4A616815
:10077000914201D84C4900E04C49884201D2012005
:1007800070BD4B492368B0FBF1F15E6826F03F066F
:100790000E435E606368934206D94FF496735943E3
:1007A0004FF47A73B1FBF3F12368491C1E6A26F0FB
:1007B0003F06314319626168914210D84900401EDA
:1007C000B0FBF1F2521CC2F30B02042A01D2042046
:1007D00022E0B0FBF1F0401CC0F30B001CE0A2686B
:1007E000F2B301EBC10303EB0116431EB3FBF6F3B7
:1007F0005B1C43F480431B0549D092B301EBC1025B
:1008000002EB0111401EB0FBF1F0401CC0F30B00E5
:1008100040F4804040F400402168CA694CF6FF7300
:100820009A431043C861D4E9071001432068026865
:1008300022F0C00211430160D4E9030101432068A2
:10084000826848F2FF339A4311438160D4E905017D
:1008500008432168CA6822F0FF021043C86001E023
:100860000EE016E02068016841F001010160256496
:10087000202084F83D00256384F83E50002070BDA0
:1008800001EB4106431EB3FBF6F35B1CB3E701200B
:10089000C2E701EB4101401EB0FBF1F0401CC0F388
:1008A0000B00B7E7A086010080841E0000093D0010
:1008B00040420F0010B586B00021009101910291D5
:1008C000039100681349884222D1134CA06940F07B
:1008D0000800A061A069694600F0080004904FF488
:1008E0004070009012200190032003900B48FFF706
:1008F00021FE0B48416841F0E06141F00201416096
:10090000E06940F40010E061E06900F40010049038
:1009100006B010BD0054004000100240000C014021
:1009200000000140024881680278114481607047EC
:1009300000000020074810B5016841F01001016077
:10094000032000F075F80F2000F006F800F024F8FE
:10095000002010BD0020024070B50D4D04464FF43C
:100960007A712878B1FBF0F00A490968B1FBF0F020
:1009700000F0DCFA48B9102C07D200222146501EA4
:1009800000F036F800206C6070BD012070BD0000E2
:10099000000000200C0000200C4808B5816941F0DF
:1009A00001018161816901F001010091C16941F09A
:1009B0008051C161C06900F08050009004484168D6
:1009C00021F0E06141F00071416008BD001002407B
:1009D00000000140002809DB00F01F0201219140C6
:1009E0004009800000F1E020C0F8001170470000CD
:1009F000F0B40E4B1B680C46C3F30223C3F107058A
:100A0000042D00D90425191D072901D2002300E077
:100A1000DB1E012606FA05F1491E214099409E4041
:100A2000761E16403143F0BC01F0DCBA0CED00E05C
:100A3000064900F0070208684FF6FF03184040EA35
:100A40000220034A10430860704700000CED00E0EC
:100A50000000FA052DE9F0470F46050061D0434E2E
:100A6000306800F00700B84209D2306820F0070073
:100A700038433060306800F00700B84251D1286830
:100A80003B4C810712D5400703D5606840F4E06015
:100A900060602878000703D5606840F460506060AB
:100AA0006068A96820F0F000084360602878C007FB
:100AB00028D06868012810D02168022810D0890742
:100AC00000292EDA616821F0030101436160FFF71C
:100AD00027FE804641F288390DE021688903EFE75F
:100AE0008901EDE7FFF71CFEA0EB0801494502D99B
:100AF0000320BDE8F0876068696800F00C00B0EB87
:100B0000810FEFD1306800F00700B8420BD9306890
:100B100020F0070038433060306800F00700B8422A
:100B200001D00120E5E72878400705D56068E9682D
:100B300020F4E060084360602878000706D560680C
:100B4000296920F4605040EAC100606000F038F884
:100B50006168084AC1F30311515CC8400649086046
:100B600006480068FFF7F8FE0020C2E700200240B8
:100B7000001002408C2C00080C0000200400002013
:100B80000448054900684968044AC1F30221515CE0
:100B9000C84070470C000020001002409C2C000848
:100BA0000448054900684968044AC1F3C221515C00
:100BB000C84070470C000020001002409C2C000828
:100BC0000E4A51680E4801F00C03042B11D0082B7B
:100BD0000FD10C48C1F38343C903C05C0AD55168E7
:100BE000084AC1F34041921E515C054A5043B0FB94
:100BF000F1F070470449484370470000001002407C
:100C000000127A007C2C000800093D002DE9F84F05
:100C1000040070D02078C04DC00749D06868C0F388
:100C20008100012807D06868C0F38100022809D13B
:100C30006868C00306D52868800339D56068002835
:100C4000E7D035E06068B0F5803F0BD010B1B0F56B
:100C5000A02F11D0286820F480302860286820F464
:100C6000802002E0286840F480302860606890B1FD
:100C7000FFF756FD06460AE0286840F48020286009
:100C8000F0E700BFFFF74CFD801B642873D828688D
:100C90008003F7D50CE0FFF743FD064605E000BFF3
:100CA000FFF73EFD801B6428F0D828688003F7D446
:100CB00020789A4E80074FF001094FF0000839D58F
:100CC000686810F00C0F07D06868C0F38100022834
:100CD00009D16868C00306D42868800714D5206944
:100CE000012808D110E02069B0B1C6F80090FFF7E4
:100CF00017FD074605E00AE1FFF712FDC01B0228B9
:100D0000C4D828688007F7D52868616920F0F80002
:100D100040EAC10028600DE0C6F80080FFF700FD42
:100D2000074604E0FFF7FCFCC01B022823D8286814
:100D30008007F7D4207800072CD57948A169D9B16C
:100D4000C0F80090FFF7ECFC074604E0FFF7E8FC72
:100D5000C01B02280FD8686A8007F7D571484FF486
:100D6000FA510068B0FBF1F0009000BF0098411EFE
:100D70000091FAD20EE080E0C0F80080FFF7D0FCCE
:100D8000074604E0FFF7CCFCC01B022875D8686A50
:100D90008007F7D42078400760D5E8690027C000B5
:100DA00008D4E86940F08050E861E869012700F064
:100DB000805000905C480168C90513D401688346DF
:100DC00041F480710160FFF7ABFC824606E000BF92
:100DD000FFF7A6FCA0EB0A0064284ED8DBF8000061
:100DE000C005F5D5E06801280AD008B1052813D060
:100DF000286A20F001002862286A20F0040002E03E
:100E0000286A40F001002862E06841F2883B98B10E
:100E1000FFF786FC82460BE0286A40F00400286257
:100E2000EEE700BFFFF77CFCA0EB0A0159455AD85A
:100E3000286A8007F6D50CE0FFF772FC824605E0D1
:100E4000FFF76EFCA0EB0A0159454CD8286A8007D1
:100E5000F6D41FB1E86920F08050E861E06988B3FA
:100E60006968C1F38101022944D00228C6F8608074
:100E700004D0FFF755FC044638E034E0FFF750FC9F
:100E8000074604E0FFF74CFCC01B02282BD828685B
:100E90008001F7D4206AB0F5803F05D16868A16869
:100EA00020F4003008436860D4E908010843696809
:100EB00021F4741108436860C6F86090FFF730FCB5
:100EC000044606E025E000BFFFF72AFC001B0228CD
:100ED00009D828688001F7D51BE000BFFFF720FC88
:100EE000001B022802D90320BDE8F88F2868800182
:100EF000F4D40EE00128F7D06868226A00F480314B
:100F0000914204D1616A00F47010884201D001203E
:100F1000EAE70020E8E7000000100240000042423B
:100F2000800442420C0000200070004010B5401EBA
:100F3000B0F1807F01D3012010BD4FF0E02460614B
:100F40000F21601701F04EF80020A06107202061FA
:100F5000002010BD7047704770B590F83C20012A02
:100F600026D0012480F83C40022280F83D2003680E
:100F70005A689D6822F070060A6832435A600D4B29
:100F800002689A4208D0B2F1804F05D00A4B9A42CB
:100F900002D00A4B9A4204D1496825F080031943D4
:100FA000916080F83D40002180F83C10084670BDFB
:100FB000022070BD002C01400004004000080040E9
:100FC00010B5040003D094F83D0010B107E00120F3
:100FD00010BD002084F83C00204600F01FF80220DD
:100FE00084F83D00211D206800F02AFE012084F8CD
:100FF000460084F83E0084F83F0084F8400084F8FE
:10100000410084F8420084F8430084F8440084F8E6
:10101000450084F83D00002010BD000008B50168BF
:101020001448B1F1804F14D0134A914220D1C169C4
:1010300041F00201C161C069002200F0020000908D
:1010400011461D20FFF7D4FC1D20BDE80840FFF726
:10105000C1BCC16941F00101C161C069002200F059
:101060000100009011461C20FFF7C2FC1C20ECE799
:1010700008BD0000001002400004004090F83D1040
:10108000012901D001207047022180F83D1001683C
:10109000CA6842F00102CA6000680B49884208D061
:1010A000B0F1804F05D00949884202D008498842F2
:1010B00004D1816801F00701062903D0016841F0DD
:1010C0000101016000207047002C01400004004035
:1010D000000800400168CA6822F00102CA60016885
:1010E0000A6A41F211131A4207D10A6A9B101A4286
:1010F00003D10A6822F001020A60012180F83D1044
:101100000020704770B5044690F83C000025012887
:1011100017D0012684F83C60022084F83D00206846
:10112000826822F0770222F47F42826008685028A9
:1011300038D00DDC20284FD005DC90B3102811D119
:101140004AE0022070BD302846D040280AD13BE05A
:1011500060282FD070280DD0B0F5805F03D0B0F597
:10116000005F12D0012584F83D60002084F83C0027
:10117000284670BDCB68D1E90121206800F09CFDB4
:101180002068816841F0770109E0CB68D1E901214D
:10119000206800F091FD2068816841F48041816001
:1011A000E1E719E0CA684968206800F097FD50211E
:1011B000206806E0CA684968206800F0A0FD602148
:1011C000206800F083FDCEE7CA684968206800F017
:1011D00085FD40212068F4E7226801461046F0E7CB
:1011E00070472DE9F04104460068C66805694FF074
:1011F0000007A90713D5B10711D5F91E0161012018
:101200002077206880698007204602D0FFF7E8FF3A
:1012100004E000F07EF8204600F07CF827776807AD
:1012200016D5700714D521686FF0040008610220FC
:1012300020772068806910F4407F204602D0FFF7B5
:10124000CFFF04E000F065F8204600F063F8277750
:10125000280715D5300713D521686FF008000861FD
:10126000042020772068C0698007204602D0FFF75D
:10127000B7FF04E000F04DF8204600F04BF8277768
:10128000E80616D5F00614D521686FF01000086145
:10129000082020772068C06910F4407F204602D0E3
:1012A000FFF79EFF04E000F034F8204600F032F82B
:1012B0002777E80708D0F00706D021686FF0010013
:1012C0000861204600F028F8280608D5300606D523
:1012D00021686FF0800008612046FFF73BFE68063A
:1012E00008D5700606D521686FF0400008612046D9
:1012F00000F034F8A8060AD5B00608D521686FF0CA
:10130000200008612046BDE8F041FFF724BEBDE89B
:10131000F0817047704700000D49006809688842F5
:1013200010D10C4864220188491C89B2B1FBF2F348
:10133000018002FB1311002903D10121418081802A
:10134000C180704704498842FBD100F057BC0000BF
:1013500084000020100000200004004070470000BE
:1013600038B500208DF800000D4800680068C043C3
:10137000800614D44FF47A7301226946084800F0BD
:1013800029FA00F047FC074C608808B900F04CFCD3
:10139000054A60889DF800101154401C608038BDDB
:1013A0005C01002018000020EC010020094808B56D
:1013B00000680068C04380060AD44FF47A730122A3
:1013C0006946044800F006FA9DF8000000F0CCFBE6
:1013D00008BD0000A401002070477047F8B50168FF
:1013E00004460868CA684B6910F00F0F4FF00005FB
:1013F0005AD003F0010602F49077374365D0C10755
:1014000005D0D10503D5616C41F00101616441074C
:1014100005D5D90703D0616C41F0020161648107F1
:1014200005D5D90703D0616C41F00401616401075F
:1014300007D502F02001314303D0616C41F008016F
:101440006164616C00293BD0800604D5900602D50A
:10145000204600F095FC20684069616CC0F3801064
:1014600001F00801014320462BD000F062FC206807
:101470004069400621D52068143050E8001F21F053
:10148000400140E80012002AF5D1E06BA8B16D4997
:101490004163E06BFEF7F0FF002811D0E06B416B79
:1014A00001B0BDE8F040084783060ED593060CD581
:1014B0002046BDE8F84000F063BC2046FFF78DFFF2
:1014C000F8BDFFF78AFF6564F8BD266B2023012E67
:1014D0007CD1C6067AD5D60678D5086848680090CB
:1014E00048694FF00206400640D5E16B0868406845
:1014F0000004000CE8D0A28D8242E5D9E08588691D
:1015000020282DD020680C3050E8001F21F4807175
:1015100040E80012002AF5D12168143151E8000F8B
:1015200020F0010041E80002002AF5D120681430C3
:1015300050E8001F21F0400140E80012002AF5D1D8
:1015400084F84230256320680C3050E8001F21F0F9
:10155000100140E80012002AF5D1E06BFEF769FFA8
:101560006663A08DE18D401A81B22AE0A08DE18DE5
:10157000401A81B2E08D0028A6D00029A4D02268AC
:101580000C3252E8000F20F4907042E80007002F60
:10159000F5D12068143050E8002F22F0010240E815
:1015A0000027002FF5D184F84230256320680C30E5
:1015B00050E8002F22F0100240E80023002BF5D164
:1015C00066632046FFF708FFF8BDFFE705062BD549
:1015D000150629D594F841002128F5D1A068B0F569
:1015E000805F01D12069B0B1206A411C216221686D
:1015F00000784860E08C401E0004000CE084E3D1D9
:101600002068C16821F08001C1602068C16841F094
:101610004001C160D8E7206A0088C0F30800486034
:10162000206A801C2062E5E74006CDD55006CBD568
:10163000CA68204622F04002CA6084F8413000F0B7
:1016400072F9C1E7231D000870B5040004D094F8B6
:101650004100002510B106E0012070BD84F8405023
:10166000204600F023F8242084F841002068C16857
:1016700021F40051C160204600F0E4FB20680169BC
:1016800021F4904101612068416921F02A01416102
:101690002068C16841F40051C1606564202084F86D
:1016A000410084F842006563002070BDF0B585B04C
:1016B0000024009401940294039403683F4F022095
:1016C0003F4903223F4D4602BB4220D18B6943F480
:1016D00080438B618B6903F4804304938B6943F0EF
:1016E00004038B618969039201F0040104910102F2
:1016F000CDE9001069462846FEF71CFFCDE90064DD
:10170000694628460294FEF715FF05B0F0BD2E4F3E
:10171000BB4226D1CB6943F40033CB61CB6903F4E0
:10172000003304938B6943F004038B61896903924E
:1017300001F0040104910421CDE900106946284616
:10174000FEF7F8FE0820CDE9000469462846029419
:10175000FEF7F0FE002211462620FFF749F9262069
:1017600028E01A4DAB42D0D1CB6943F48023CB6142
:10177000CB6903F4802304938B6943F008038B61E6
:101780008969134D01F00801CDE90321CDE900601D
:1017900069462846FEF7CEFEE814CDE90004694606
:1017A00028460294FEF7C6FE002211462720FFF7C6
:1017B0001FF92720FFF70EF9A7E7000000380140C6
:1017C0000010024000080140004400400048004072
:1017D000000C01402DE9F84F044690F842009A466B
:1017E00016460D46202802D00220BDE8F88FB5B17C
:1017F000AEB100206064222184F842102063FEF71D
:101800008FFFA6858146E685A0684FF48058202783
:10181000404501D1206920B12E46002529E0012054
:10182000E3E7002625E04B46002220212046CDF8A4
:1018300000A000F063FB18B184F842700320D4E7E5
:1018400026B1A06840451AD038B108E02068406849
:10185000C0F3080025F8020B08E0206978B1206881
:10186000406800F07F0000BF06F8010BE08D401ECD
:10187000E085E08D0028D6D184F84270B5E7206875
:101880004068F1E770472DE9F843044690F84100BD
:10189000984616460D46202802D00220BDE8F8835F
:1018A00085B17EB100206064212084F84100FEF7FC
:1018B00037FFA6848146E684A0682027B0F5805FC4
:1018C00002D003E00120E9E7206910B12E4600258F
:1018D0000EE000260CE08021204600F00FFBA8B9A6
:1018E000C6B116F8010B21684860E08C401EE08408
:1018F000E08C4B464FF00002CDF800800028EAD182
:101900004FF04001204600F0F9FA40B184F84170F0
:101910000320C3E735F8020BC0F30800E3E784F8BF
:1019200041700020BAE77047FEE70000F0B585B0CF
:1019300000251C480095019502950395816941F0A9
:1019400020018161816901F020010491816941F0E8
:1019500004018161816901F004010491816941F010
:10196000080181618069104F00F008000490002296
:101970004EF208013846FEF7CDFE012446F208007B
:10198000CDE900040226CDE9024669463846FEF755
:10199000D1FDE0038DE8710069463846FEF7CAFDC7
:1019A00005B0F0BD00100240000C01400D4810B51C
:1019B0000B4901600C49416000214FF48042816075
:1019C000C0E9031241618161C1610162FEF7AEFEAF
:1019D000002803D0BDE81040FEF71BBD10BD00007D
:1019E0000054004030000020A086010010B586B0F1
:1019F00000241648009401940294039404944FF038
:101A000080410594016041F61F41C0E90114642141
:101A1000C0E903148461FFF7D3FA08B1FEF7F9FCBB
:101A20004FF48050009069460848FFF76BFB08B1FF
:101A3000FEF7EFFC049404A904480594FFF78CFA20
:101A4000002801D0FEF7E5FC06B010BD84000020A0
:101A500010B586B0002417480094019402940394B2
:101A6000049413490594016041F61F41C0E9011433
:101A70003221C0E903148461FFF7A2FA08B1FEF72E
:101A8000C8FC4FF48050009069460A48FFF73AFBC3
:101A900008B1FEF7BEFC049404A906480594FFF7BC
:101AA0005BFA002801D0FEF7B4FC06B010BD0000C0
:101AB00000040040CC0000200C4810B50A49016029
:101AC0004FF4E1314160002181600C22C160C0E926
:101AD00004128161C161FFF7B7FD002803D0BDE8A2
:101AE0001040FEF796BC10BD0038014014010020E4
:101AF0000C4810B50A4901604FF4E1314160002102
:101B000081600C22C160C0E904128161C161FFF7EC
:101B10009BFD002803D0BDE81040FEF77ABC10BD45
:101B2000004400405C0100200C4810B50A490160E7
:101B30004FF416514160002181600C22C160C0E960
:101B400004128161C161FFF77FFD002803D0BDE869
:101B50001040FEF75EBC10BD00480040A40100200C
:101B6000FEE7FEE770477047014601A000F016BA95
:101B700053594E36323838203E3E2025630A000045
:101B8000FEF7D0BE10B590B028216846FEF7F3FAF4
:101B900014210AA8FEF7EFFA022000900120049019
:101BA00010200024059007946846FFF72FF808B12D
:101BB00072B6FEE70F20CDE90A040C940D940021C3
:101BC0000AA80E94FEF746FF002801D072B6FEE781
:101BD00010B010BD704700000148FFF702BB0000C5
:101BE000840000200148FFF749BA0000840000206B
:101BF0000148FFF7F6BA0000CC000020044910B5F8
:101C00000120087000F006F8BDE8104000F012B89E
:101C10001800002003480021026851620068891EF4
:101C200001617047CC0000200148FFF727BA00008F
:101C3000CC0000200148FFF74DBA0000CC00002086
:101C4000F0B50268194B1A4C1A4D4FF08047984274
:101C500005D0B84203D0A04201D0A84203D122F05F
:101C600070064A683243984205D0B84203D0A04279
:101C700001D0A84203D122F44074CA6822434C69BF
:101C800022F08002224302608A68C2620A6882628D
:101C9000984201D109690163012141610169C907C4
:101CA00003D0016921F001010161F0BD002C014068
:101CB000000400400008004010B5846842EA032296
:101CC00024F47F440A432243826010BD826822F0DC
:101CD00070020A4342F007018160704710B5036A41
:101CE000046A24F001040462846924F0F00444EAE4
:101CF000021423F00A020A438461026210BD10B587
:101D0000036A046A24F010040462846923F0A003C7
:101D100024F4704444EA023243EA01118261016210
:101D200010BD10B5406A0021C185C184FFF755FB85
:101D300010BD01680C3151E8002F22F4907241E887
:101D40000023002BF5D10168143151E8002F22F057
:101D5000010241E80023002BF5D1016B012909D1D3
:101D600001680C3151E8002F22F0100241E80023F5
:101D7000002BF5D1202180F842100021016370472B
:101D800008B590F84210222901D0022008BD8268CF
:101D90004FF480539A4201D1016921B1816A9A427C
:101DA0001BD04AB10AE00268816A5268C2F3080295
:101DB0000A80816A891C08E0026972B1026852686F
:101DC00002F07F020A70816A491C8162C18D491E3E
:101DD0000904090CC18503D01BE002685268F1E7D1
:101DE0000168CA6822F02002CA600168CA6822F449
:101DF0008072CA6001684A6922F001024A612021AA
:101E000080F8421000214163026B012A03D0FFF7E2
:101E100039FD002008BD016301680C3151E8002F35
:101E200022F0100241E80023002BF5D101680A6876
:101E3000D20602D50A6849680091818DFFF7CCFA75
:101E4000E7E7000070B5044600680169E26821F424
:101E50004051114301612169A06808436169084349
:101E60002168CA6841F20C639A430243CA60206841
:101E70004169A26921F44071114341611E49206802
:101E8000884202D1FEF78CFE01E0FEF779FE00EBFE
:101E9000C00101EB0012606864218000B2FBF0F326
:101EA000B3FBF1F36FF018067343B2FBF0F5B2FB2E
:101EB000F0F605EB8305322303EB0515B5FBF1F5D1
:101EC000B6FBF1F605F0F00505EB0615B2FBF0F6F2
:101ED000B2FBF0F0B0FBF1F06FF01802504306EBEC
:101EE000800003EB0010B0FBF1F0216800F00F0060
:101EF0002844886070BD0000003801402DE9F84397
:101F0000984617460D460446089E24E0701C22D0D1
:101F1000FEF706FCA0EB0800B0421AD8CEB120684C
:101F2000C168490717D5802D15D0402D13D0016801
:101F3000C94309070FD40168002540680090204676
:101F4000FFF7F7FE0820606484F840500120BDE8E8
:101F5000F8830320FBE72068006835EA000004D01E
:101F60000020B842D2D00020F1E70120F9E70000BC
:101F700010B5FFF7F5F9BDE810400148FFF72EBA9C
:101F80005C01002010B5FFF711FABDE810400148D0
:101F9000FFF724BAA4010020FEE700000FB4054BB0
:101FA00010B503A9044A029800F040F810BC5DF88F
:101FB00014FB0000AD260008200000200FB41CB563
:101FC0000A46521ECDE9000207A9054B6A4606984B
:101FD00000F02CF8009A002111701CBC5DF814FB75
:101FE0008F2400080907090E002804DB00F1E02017
:101FF00080F80014704700F00F0000F1E02080F836
:10200000141D7047004870472C00002002E008C8EB
:10201000121F08C1002AFAD170477047002001E062
:1020200001C1121F002AFBD1704700002DE9FF4FAC
:102030008DB00F460546002606E025280BD0DDE9C9
:102040000F1290476D1C761C28780028F5D111B02E
:102050003046BDE8F08F0024A246A1460122EC499B
:1020600000E0044315F8013F203B02FA03F0084268
:10207000F7D128782A2810D06FF02F022878A0F105
:102080003001092914D80AEB8A0102EB410144F01E
:10209000020400EB010A6D1CF0E701CF5FEA000AC1
:1020A00003D544F40054CAF1000A44F002046D1C44
:1020B00028782E2817D115F8010F44F004042A2897
:1020C0000ED06FF02F022878A0F1300109290AD82C
:1020D00009EB890102EB410100EB01096D1CF2E7FC
:1020E00057F8049B6D1C28786C280FD006DC4C2810
:1020F00017D068280DD06A2814D104E0742810D0B5
:102100007A280FD10DE044F400140AE044F480145E
:1021100001E044F440146978814202D104F580144E
:102120006D1C6D1C2A786E2A1FD00CDC632A31D0FE
:1021300004DC002A8BD0582A11D1A3E0642A68D08D
:10214000692A0CD165E0732A2ED004DC6F2A73D083
:10215000702A04D19BE0752A6FD0782A6ED0104681
:10216000DDE90F129047761C50E1C4F302500228BB
:1021700006D0032809D0042801CF09D0066045E124
:1021800001CFF117C0E9006140E101CF06803DE1D8
:1021900006703BE117F8040B8DF8000000208DF865
:1021A0000100EB46012003E057F804BB4FF0FF307D
:1021B00061074FF0000102D40DE008F101018846EB
:1021C00049450FDA8045F8DB1BF808100029F4D1E7
:1021D00008E008F1010188468142FADB1BF808108B
:1021E0000029F6D1DDE90F23AAEB0800814621463C
:1021F00000F036F9304400EB080604E0DDE90F1288
:102200001BF8010B9047B8F10108F7D22146484668
:10221000F7E00A21C4F302534FF0000B0891022BA0
:1022200004D001CFC117032B09D00AE0FF1D27F00E
:102230000707F7E8020108E032E01FE020E000B203
:10224000C117042B01D140B2C117031E71F1000365
:1022500007DA4FF0000CD0EB0C006CEB01012D23E2
:1022600002E0230504D52B238DF82430012303E05D
:10227000E30701D02023F7E7984658E00A2110E051
:1022800010210EE010204FF0000B08900CE0102100
:102290004FF0000B44F004044FF00809089103E0EC
:1022A00008214FF0000B0891C4F30253022B04D015
:1022B00001CF0021032B06D006E0FF1D27F0070702
:1022C000F7E8020103E080B2042B00D1C0B24FF066
:1022D000000823072BD5702A07D0DDF820C08CF02A
:1022E000100C5CEA0B0C05D00EE040238DF8243076
:1022F000012308E050EA010306D030238DF8243092
:102300008DF8252002239846DDF820C08CF0080CBB
:102310005CEA0B0C0BD150EA010301D1630706D52F
:1023200030238DF824304FF00108A9F10109582A13
:1023300004D038A20B9208AA0A920BE03AA2F9E75D
:102340005B46089AFDF762FF0B9B9B5C0A9A521E44
:102350000A92137050EA0102F2D10A98ADEB000024
:1023600000F1200B600702D524F4803401E04FF027
:102370000109D94502DDA9EB0B0000E0002000EBCC
:102380000B0141440890AAEB010AE00306D4DDE901
:102390000F232146504600F063F806444FF0000931
:1023A00008E009A911F80900DDE90F12904709F1C9
:1023B0000109761CC145F4DBE0030CD5DDE90F23F0
:1023C0002146504600F04CF8064404E0DDE90F12C7
:1023D00030209047761C0899481E08900029F5DCAB
:1023E00008E00A980A990078491C0A91DDE90F1261
:1023F0009047761CBBF10001ABF1010BF1DC2146EB
:102400005046DDE90F2300F019F806446D1C1BE669
:1024100009280100303132333435363738396162BA
:10242000636465660000000030313233343536377E
:102430003839414243444546000000002DE9F0414F
:10244000044600251E461746880404D405E0394694
:102450002020B0476D1C641EF9D52846BDE8F081E8
:102460002DE9F041044600251E469046C80301D5DB
:10247000302700E02027880404D505E0414638468F
:10248000B0476D1C641EF9D52846BDE8F0814A6846
:10249000002A06D00A68531C0B6010704868401E62
:1024A0004860704770B505460024084600F0A8FB58
:1024B00029460548FDF76AFE00B10124034840881B
:1024C00000F066FB204670BDEC01002018000020E3
:1024D00010B5044640F6C410FEF71AF805224FF472
:1024E000FA51204600F09CF8040004D04FF47A71B1
:1024F00003A000F055F80A20FEF70AF8204610BDA8
:1025000041542B43574155544F434F4E4E3D31009C
:10251000B0B0802269460748FDF77EFF402220A91F
:102520000548FDF779FF00F05FF86846FFF7D0FF38
:1025300000F03EF9007C00080080000870B5114DE5
:102540000FA4688800F024FB2046FDF73DFEC1B2D1
:102550004FF496763246204600F032FB304600F0CB
:102560004FFB688800F014FB40F6B83106A000F07D
:1025700017F8BDE870404FF47A7105A000F010B86C
:102580002B2B2B001800002041542B5253540000D9
:1025900041542B4349504D4F44453D30000000000D
:1025A00010B5C2B00C460CA1034600910BA24FF42B
:1025B000807101A8FFF702FD01A8FDF705FEC1B279
:1025C000224601A800F0FCFA214606A0FFF76AFFA8
:1025D0000028F1D042B010BD0D0A0000257325730C
:1025E000000000004F4B000010B5FFF7A7FF4FF4AD
:1025F0007A74214604A0FFF7D3FF2146BDE81040BE
:1026000004A0FFF7CDBF000041542B43574D4F446A
:10261000453D310041542B435751415000000000CB
:102620002DE9F041A2B00E461BA1154603460091CC
:102630001AA2802101A8FFF7C1FC1A4F41F2883885
:1026400001A8FDF7C1FDC1B2324601A800F0B8FAF9
:10265000002404E0641CA4B20120FDF7C4FE7888C5
:102660000028F7D02046641CA4B2B042F2D3404602
:10267000FDF74EFF2800A0F101056DB203D5002043
:1026800022B0BDE8F081314607A0FFF70BFF00281C
:10269000D6D00120F4E700000D0A00002573257351
:1026A00000000000180000204F4B000013B54FF64B
:1026B000FF73012269460248FFF7E5F800981CBD48
:1026C0001401002010B5002821D0114B0022001F5A
:1026D000196803E0814203D80A4649680029F9D104
:1026E00052B11368841A9C4204D1006818441060E7
:1026F000104602E0506000E0186039B102680B1A21
:10270000934203D10B681A4402604968416010BDCE
:1027100024000020FEF70EF9FFF734FAFFF706F960
:10272000FFF744F9FFF762F9FFF7C6F9FFF7E0F9A1
:10273000FFF78EF9FFF7F8F900F084FA00F09CFA41
:10274000FCE70000F0B50B30154D20F00701002428
:10275000144A0FE003688B420BD38B4205D95E1AF3
:1027600043184768C3E9006700E04368136002C08C
:1027700004E0021D10680028ECD12046002802D198
:10278000286808B10020F0BD064A07481060074AD3
:10279000121A22F00702C0E9002401202860D7E7BE
:1027A0002800002024000020F4030020F005002071
:1027B000F2B059490027CDE9011752A0009057A265
:1027C000CDE903724FF480754D4B55A2294605A8FB
:1027D000FFF7F4FB40F6B8384446414605A8FFF73A
:1027E000DFFE294605A8FDF7C6FC40F25B70CDE987
:1027F000000757A363A2294605A8FFF7DFFB214680
:1028000005A8FFF7CDFE294605A8FDF7B4FC64A393
:1028100070A2294605A80097FFF7D0FB214605A81E
:10282000FFF7BEFE294605A8FDF7A5FC6F4C00206A
:1028300000F0E6F9294605A8FDF7E1FD62886C493C
:1028400005A8FDF7DEFD608800F0A2F969A105A8E2
:10285000FDF79CFC0028EAD0802145A8FDF78BFC01
:1028600068A105A8FDF792FC0600E0D067A1FDF77E
:102870008DFCF0B1342165A8FDF77DFC65AB64A249
:1028800064A1304600F0DAF865A8FDF7B2FC814695
:10289000294605A8FDF76FFCCDE9009702975F4A2E
:1028A000294605A86368FFF789FB414605A8FFF79D
:1028B00077FE5BA13046FDF769FC0028B7D03421D4
:1028C00065A8FDF758FC65AB57A258A1304600F04B
:1028D000B5F865A800F0D8F8294605A8FDF74BFC27
:1028E00065A8CDE900070297534A294605A8636801
:1028F000FFF764FB414605A8FFF752FE97E700008B
:10290000442E000873746D3332266B32316A75556C
:10291000556D6373710000002C2D0008000000004D
:1029200041542B4D515454555345524346473D3025
:102930002C312C222573222C222573222C22257344
:10294000222C25642C25642C2225732200000000F3
:102950006B32316A7555556D6373712E696F742DC5
:1029600061732D6D7174742E636E2D7368616E6763
:102970006861692E616C6979756E63732E636F6D22
:102980000000000041542B4D515454434F4E4E3DD6
:10299000302C222573222C25642C25640000000095
:1029A0002F7379732F6B32316A7555556D6373715F
:1029B0002F73746D33322F7468696E672F7365726D
:1029C000766963652F70726F70657274792F7365A5
:1029D0007400000041542B4D5154545355423D3026
:1029E0002C222573222C25640000000018000020F2
:1029F000EC0100202B4D515454535542524543563F
:102A00003A000000706172616D7300006C656400D3
:102A10007D000000226C6564223A0000C42D00088D
:102A2000766F6963650000002200000022766F69FE
:102A30006365223A00000000702D00082DE9F04186
:102A40001D4616460F46FDF7A1FB040017D0384679
:102A5000FDF7BAFB04440BA13046FDF7BCFB00B9FF
:102A6000641C31462046FDF791FB002807D0061B69
:102A7000324621462846FDF79BFB0020A855BDE8BD
:102A8000F0810000220000002DE9F05F834605265A
:102A9000FDF79AFB00F10108A0F1020A9BF8000083
:102AA000012802D04FF0000A042608F103008146F5
:102AB000FFF748FE0446FD2020704FEA18206070A2
:102AC00000252F4684F802805846FDF77DFB02461C
:102AD0005946E01CFDF736FB02E0E05D45407F1CF7
:102AE000B742FAD30AEB060002E0A15D4D40761C26
:102AF000B042FAD804EB090009F0FF0100F8015CCC
:102B0000204600F095F82046BDE8F05FFFF7DABDFB
:102B10004FF40056174C41F28837750001223146B8
:102B20002046FDF7F7FD002229462046FDF7F2FD7D
:102B3000012208212046FDF7EDFD0FA0FFF72EFA38
:102B40003846FDF7E5FC002231462046FDF7E2FD60
:102B5000012229462046FDF7DDFD002208212046FE
:102B6000FDF7D8FD07A0FFF719FA3846FDF7D0FCAE
:102B7000D4E70000000C014048494748204C4F571B
:102B80000A0000004C4F5720484947480A000000FF
:102B900010B5040003D0064906A0FFF7FFF921464F
:102BA0000348FDF7E8FA054800214180017010BD97
:102BB000EC0100203E3E2025730A00001800002092
:102BC00070B516460C460546012902D9014607A0F4
:102BD00001E0297807A0FFF7E1F9334622462946AC
:102BE000BDE870400548FEF74EBE00003C3C202585
:102BF000730A00003C3C2025630A00005C010020B1
:102C000070B505460024FDF783FC084E641CA4B291
:102C10000120FDF77DFC307808B1002403E0AC42D0
:102C2000F4D3002DF2D0E0B270BD000018000020F7
:102C30000A46014640F2DC530148FEF724BE00007C
:102C4000A40100200A4810B50068C16841F02001C5
:102C5000C16008480068C16841F02001C160FFF709
:102C600057FFFFF755FCBDE81040FEF7BBBF000063
:102C70005C010020A401002070470102020304054A
:102C8000060708090A0B0C0D0E0F101000000000BB
:102C9000000000000102030406070809000000000C
:102CA0000102030400404040404040404040414158
:102CB0004141414040404040404040404040404011
:102CC00040404040400502020202020202020202AB
:102CD00002020202022020202020202020202002A8
:102CE0000202020202029090909090901010101038
:102CF00010101010101010101010101010101010D4
:102D00000202020202028888888888880808080867
:102D10000808080808080808080808080808080833
:102D20000202020240000000A52C00086262363058
:102D300065333738373132656261636666323663D0
:102D40003331366437653263363935623137323381
:102D500036323662393136326132373632353930D1
:102D60003764316562346635623033370000000005
:102D700041542B4D5154545055423D302C22257313
:102D8000222C227B5C22706172616D735C223A7B23
:102D90005C22766F6963655C223A5C2225735C2253
:102DA0005C7D5C2C5C2276657273696F6E5C223A86
:102DB0005C22312E302E305C227D222C25642C2585
:102DC0006400000041542B4D5154545055423D3045
:102DD0002C222573222C227B5C22706172616D7320
:102DE0005C223A7B5C226C65645C223A25645C7DE3
:102DF0005C2C5C2276657273696F6E5C223A5C2291
:102E0000312E302E305C227D222C25642C2564004E
:102E10002F7379732F6B32316A7555556D637371EA
:102E20002F73746D33322F7468696E672F65766502
:102E30006E742F70726F70657274792F706F737407
:102E4000000000006B32316A7555556D6373712E49
:102E500073746D33327C7365637572656D6F646511
:102E60003D325C2C7369676E6D6574686F643D6894
:102E70006D61637368613235365C2C74696D65739E
:102E800074616D703D31373335363035333632301D
:102E900037337C00B42E0008000000203000000012
:102EA0000C200008E42E000830000020C0090000BB
:102EB0001C200008010000001000000000000000BD
:102EC00000127A0000000000000000000000000076
:102ED000102E0008000000000000000000000000AC
:042EE00000000000EE
:04000005080000ED02
:00000001FF
