:020000040800F2
:100000003807002001010008AF030008A70300081B
:10001000AB030008CF010008C10E0008000000007B
:100020000000000000000000000000003B08000885
:100030002D020008000000006D060008B909000844
:100040001B0100081B0100081B0100081B01000820
:100050001B0100081B0100081B0100081B01000810
:100060001B0100081B0100081B0100081B01000800
:100070001B0100081B0100081B0100081B010008F0
:100080001B0100081B0100081B0100081B010008E0
:100090001B0100081B0100081B0100081B010008D0
:1000A0001B0100081B0100081B0100081B010008C0
:1000B0001B0100081D0A00081B0100081B010008A5
:1000C0001B0100081B0100081B0100081B010008A0
:1000D0001B0100081B0100081B010008A10B000800
:1000E0001B0100081B0100081B010008DFF80CD0F1
:1000F00000F044F800480047D90F000838070020F6
:100100000648804706480047FEE7FEE7FEE7FEE7B1
:10011000FEE7FEE7FEE7FEE7FEE7FEE7BD090008B3
:10012000ED00000840EA01039B0703D009E008C97D
:10013000121F08C0042AFAD203E011F8013B00F8AC
:10014000013B521EF9D27047D2B201E000F8012BF8
:10015000491EFBD270470022F6E710B513460A4647
:1001600004461946FFF7F0FF204610BD421C10F868
:10017000011B0029FBD1801A70470000064C074D77
:1001800006E0E06840F0010394E807009847103467
:10019000AC42F6D3FFF7AEFFF410000814110008CC
:1001A0002DE9F04707460C4690461D463846FFF7B6
:1001B000DDFF0646A9467019A04201D3A4EB06094B
:1001C000B8194A464146FFF7ADFFBDE8F08700BFCA
:1001D000FEE770B504460D4629462046FFF7BBFFF3
:1001E00070BD10B5072000F0F7FA0446214627201D
:1001F00000F0A0FE10BD30B589B005460C46E1B256
:10020000284600F087FD202101A8FFF7A4FFE0B2F7
:100210008DF8040023462A46202101A8FFF7C0FFDD
:10022000FF2101A800F0A4F909B030BD704700B566
:10023000034603E04FF47A7000F005F81800A3F1CC
:100240000103F7D100BD00EBC001C9004FF0E0226F
:100250005161002191610521116100BF4FF0E02142
:10026000096901F480310029F8D004214FF0E0221F
:10027000116170472DE9F04102460025002600205B
:1002800000230024002791F803C00CF00F0591F81B
:1002900003C00CF0100CBCF1000F03D091F802C0A9
:1002A0004CEA050591F800C0BCF1000F31D014688C
:1002B00000202BE04FF0010C0CFA00F3B1F800C065
:1002C0000CEA03069E4220D183004FF00F0C0CFA7B
:1002D00003F7BC4305FA03FC4CEA040491F803C09D
:1002E000BCF1280F06D14FF0010C0CFA00FCC2F84B
:1002F00014C00AE091F803C0BCF1480F05D14FF0DB
:10030000010C0CFA00FCC2F810C0401C0828D1D324
:100310001460B1F800C0BCF1FF0F34DD5468002058
:100320002EE000F1080C4FF0010808FA0CF3B1F8C8
:1003300000C00CEA03069E4221D183004FF00F0C4F
:100340000CFA03F7BC4305FA03FC4CEA040491F8E9
:1003500003C0BCF1280F05D100F1080C08FA0CF815
:10036000C2F8148091F803C0BCF1480F07D100F126
:10037000080C4FF0010808FA0CF8C2F81080401C75
:100380000828CED35460BDE8F0810246002093686F
:100390000B400BB1012000E0002070470AB1016161
:1003A00000E04161704700BFFEE700BFFEE7704715
:1003B00010B500F043F8002000F09EFD2021312010
:1003C00000F0B8FDFF21E22000F0B4FD052219493C
:1003D000302000F077FD052217492A2000F072FD39
:1003E0000121212000F0A6FD0121222000F0A2FD24
:1003F0001A21242000F09EFD0021252000F09AFD06
:100400000F21262000F096FD0F21202000F092FD04
:10041000FF21E22000F08EFDFF21E12000F08AFDA7
:10042000012000F069FD0F20FFF70DFFFFF7D9FE57
:1004300010BD0000200000202500002008B501218B
:100440000C2000F025F910208DF803008020ADF875
:10045000000003208DF8020069462248FFF70AFFDA
:1004600010208DF803002020ADF8000003208DF847
:10047000020069461B48FFF7FDFE10208DF80300BF
:10048000ADF8000003208DF8020069461548FFF71B
:10049000F1FE10208DF803000120ADF800000320CC
:1004A0008DF8020069461048FFF7E4FE48208DF8F9
:1004B00003000220ADF8000003208DF80200694619
:1004C0000948FFF7D7FE48208DF803004020ADF81B
:1004D000000003208DF8020069460248FFF7CAFEBB
:1004E00008BD000000080140000C014010B50020CC
:1004F00000F002FD0F21202000F01CFD012000F083
:10050000FBFC10BD70B50446072000F065F90546F8
:100510002946272000F00EFD05F0400098B100208C
:1005200000F0EAFC20222146612000F02BF9FF2197
:10053000E22000F0FFFC012000F0DEFC9620FFF737
:1005400082FE002070BD0120FCE710B504460020AB
:1005500000F0D2FC05222146302000F0B3FC0E2131
:10056000202000F0E7FC012000F0C6FC10BD0000D8
:1005700070B505460C4606480471FFF7E6FF0F20EC
:10058000FFF761FE284600F005F8FFF7AFFF70BDEA
:100590002000002070B50546002000F0ADFC2022B0
:1005A0002946A02000F08EFC012000F0A5FC00BF31
:1005B00000F002F90128FBD0072000F00DF90446F5
:1005C0002146272000F0B6FC04F0100028B1FF21DE
:1005D000E12000F0AFFC102070BD04F0200008B155
:1005E0002020F9E7FF20F7E770B5002100230F2254
:1005F000C47804B3154C246804F4E064C4F5E064E2
:10060000210AC1F10403CA40447804FA03F1847852
:100610001440214309010E4C0678A155047804F0DA
:100620001F050124AC4005786D11AD0005F1E025F2
:10063000C5F8004109E0047804F01F050124AC402E
:10064000044D0678761145F8264070BD0CED00E0AB
:1006500000E400E080E100E002490143024A116049
:10066000704700000000FA050CED00E07047000044
:1006700029B1064AD2690243044BDA6104E0034A15
:10068000D2698243014BDA617047000000100240DA
:1006900029B1064A92690243044B9A6104E0034A75
:1006A00092698243014B9A6170470000001002403A
:1006B00030B500210022002400232D4D6D6805F087
:1006C0000C0121B1042905D0082923D105E0294DC9
:1006D000056022E0274D05601FE0254D6D6805F49B
:1006E0007012234D6D6805F48034022505EB9242AB
:1006F0001CB9214D554305600BE01D4D6D6805F497
:1007000000351DB11C4D5543056002E0194D5543A0
:10071000056002E0174D056000BF00BF144D6D6815
:1007200005F0F0010909154D6B5C0568DD40456079
:100730000F4D6D6805F4E061090A104D6B5C45686A
:10074000DD4085600A4D6D6805F46051C90A0B4DA6
:100750006B5C4568DD40C560054D6D6805F4404142
:10076000890B074D6B5CC568B5FBF3F5056130BDC2
:100770000010024000127A0000093D000000002035
:10078000100000202DE9F04107460D4616460020D6
:1007900000F0BCFB384600F030F8002405E0FF20F4
:1007A00000F02BF82855601CC4B2B442F7DB0120DE
:1007B00000F0ACFBBDE8F08110B502210148FFF765
:1007C000E4FD10BD000C014010B540210148FFF7C9
:1007D000DCFD10BD0008014070B50446002000F0AB
:1007E00095FB204600F009F8FF2000F006F80546CA
:1007F000012000F08BFB284670BD70B50446002533
:1008000017E004F08000802803D1012000F088FB6D
:1008100002E0002000F084FB6006040E012000F0DE
:1008200099FBFFF7D1FF0443002000F093FB681C05
:10083000C5B2082DE5DB204670BD70472DE9FC5F91
:1008400081464FF0050A4846FFF790FC471CA7F188
:10085000030B99F8000001900198012803D04FF094
:10086000000B4FF0040AFE1C304600F00DFC04465D
:100870004FF000080025FD202070380A6070A77036
:100880004846FFF773FC024649460090E01CFFF71C
:1008900049FC00BF03E0605D80EA08086D1C554517
:1008A000F9D3554603E0605D80EA08086D1C0BEB48
:1008B0000A00A842F7D8701E04F80080F1B2204662
:1008C00000F028FA204600F05FFBBDE8FC9F10B561
:1008D00000F002F810BD00000CB50020019000905F
:1008E0003348006840F480303149086000BF304828
:1008F000006800F4003000900198401C01900098BE
:1009000018B90198B0F5A06FF1D12948006800F43A
:10091000003010B10120009001E00020009000980C
:10092000012843D12348006840F0100021490860A5
:100930000846006820F0030008600846006840F0A0
:10094000020008601A484068194948600846406833
:1009500048600846406840F4806048600846406847
:1009600020F47C1048600846406840F4E810486075
:100970000846006840F08070086000BF0C480068BE
:1009800000F000700028F9D00948406820F003000A
:10099000074948600846406840F00200486000BFD0
:1009A0000348406800F00C000828F9D10CBD000095
:1009B00000100240002002407047000010B51348AC
:1009C000006840F00100114908600846406810497D
:1009D00008400E494860084600680E4908400B4927
:1009E00008600846006820F48020086008464068D7
:1009F00020F4FE0048604FF41F008860FFF767FF97
:100A00004FF000600449086010BD00000010024073
:100A10000000FFF8FFFFF6FE08ED00E010B5012131
:100A2000074800F04EF848B100F04CF901210448A5
:100A300000F038F80021024800F037F810BD00003F
:100A4000000400407FB505460C4601210220FFF757
:100A50000FFEADF80450ADF800400020ADF80600E0
:100A6000ADF8020069460E4800F048F80122114630
:100A70000B4800F037F80121094800F016F81D2056
:100A80008DF80C0000208DF80D0002208DF80E006E
:100A900001208DF80F0003A8FFF7A6FD7FBD000021
:100AA00000040040CA430282704721B1028842F02C
:100AB0000102028004E002884FF6FE731A400280B1
:100AC000704730B50246002000230024158A05EA4D
:100AD0000103958905EA010413B10CB1012000E07E
:100AE000002030BD1AB183890B43838102E08389E2
:100AF0008B43838170478184704700000022028805
:100B00001D4B98420ED01D4B98420BD0B0F1804F38
:100B100008D01B4B984205D01A4B984202D01A4B72
:100B2000984204D14FF68F731A404B881A43174BE3
:100B3000984207D0164B984204D04FF6FF431A4014
:100B4000CB881A4302808B8883850B8803850A4BE8
:100B500098420BD0094B984208D00E4B984205D0D2
:100B60000D4B984202D00D4B984201D10B7A03866F
:100B70000123838270470000002C014000340140B3
:100B80000004004000080040000C0040001000403D
:100B90000014004000400140004401400048014072
:100BA00010B540F22551114800F0CEF8E8B100F040
:100BB00083F804460E480088FF2813DC00210D4806
:100BC000FFF799FF0A48008818B901210948FFF783
:100BD0006CFF074801880088401C054A10800648C1
:100BE000445401E000F06EF800BF10BD0048004022
:100BF00018000020000400403400002010B586B02A
:100C0000044601210820FFF743FD01218804FFF776
:100C10002FFD4FF48060ADF8140003208DF816000E
:100C200018208DF8170005A92048FFF723FB4FF483
:100C30000060ADF8140004208DF8170005A91B48CA
:100C4000FFF718FB27208DF8000003208DF8010026
:100C50008DF8020001208DF803006846FFF7C4FC00
:100C600001940020ADF80800ADF80A00ADF80C00C2
:100C7000ADF810000C20ADF80E0001A90C4800F0F2
:100C8000B3F8012240F22551094800F087F801210C
:100C9000074800F04DF841F61F413120FFF7D2FE22
:100CA00000210448FFF701FF06B010BD000C014011
:100CB000004800400004004001480088C0B270476E
:100CC0000448004010B50948006828B10848018868
:100CD0000848064A126890470020054908804FF4EA
:100CE00080710448FFF737FA10BD00001C00002097
:100CF000180000203400002000BF0549098801F0D9
:100D000040010029F9D00249091D08807047000000
:100D10000048004030B502460B46002405E012F8BA
:100D2000010BFFF7E9FF601CC4B29C42F7DB30BD4A
:100D300021B1828942F40052828104E082894DF619
:100D4000FF731A408281704770B502460024002369
:100D50000025002040F66A16B14200D100BFC1F361
:100D6000421501F01F03012606FA03F3012D02D1FB
:100D70009689334006E0022D02D1168A334001E005
:100D8000968A33400C12012606FA04F41688344081
:100D900013B10CB1012000E0002070BDF0B5034696
:100DA000002400260025002040F66A17B94200D131
:100DB00000BF1846C1F3421401F01F06012707FACD
:100DC00006F5012C01D10C3004E0022C01D11030C9
:100DD00000E014301AB107682F43076002E007688B
:100DE000AF430760F0BD00002DE9F04786B005462F
:100DF0000E460024A24600BFA1460027B08900B1DC
:100E000000BF2F462C8A4CF6FF700440F088044344
:100E10002C82AC894EF6F3100440B0883189084327
:100E2000718908430443AC81AC8A4FF6FF4004400B
:100E3000B0890443AC8201A8FFF73AFC1F488742FF
:100E400002D1DDF810A001E0DDF80CA0A88900F4C3
:100E5000004040B10AEBCA0000EB0A1031684900BB
:100E6000B0FBF1F807E00AEBCA0000EB0A103168AA
:100E70008900B0FBF1F86420B8FBF0F00401200910
:100E8000642101FB1089A88900F4004040B13220A0
:100E900000EBC900B0FBF1F000F00700044308E0EC
:100EA000322000EB09106421B0FBF1F000F00F00DC
:100EB00004432C8106B0BDE8F087000000380140F3
:100EC00000BFFEE72DE9F04107460D46164600201B
:100ED00000F01CF83846FFF790FC002404E0285D81
:100EE000FFF78BFC601CC4B2B442F8DB012000F0B9
:100EF0000DF8BDE8F081000010B50446224601213E
:100F00000148FFF74BFA10BD000C014010B5044634
:100F1000224610210148FFF741FA10BD00080140A8
:100F200010B50446224680210148FFF737FA10BD6C
:100F30000008014070B505460C460020FFF7E6FFAB
:100F40002846FFF75AFC2046FFF757FC0120FFF721
:100F5000DDFF70BD10B50446224620210148FFF791
:100F60001DFA10BD0008014002E008C8121F08C1A8
:100F7000002AFAD170477047002001E001C1121F1A
:100F8000002AFBD17047000010B5002821D0114B7A
:100F90000022001F196803E0814203D80A4649680D
:100FA0000029F9D152B11368841A9C4204D1006817
:100FB00018441060104602E0506000E0186039B13B
:100FC00002680B1A934203D10B681A440260496805
:100FD000416010BD2C000020C8B0202140A8FFF7C0
:100FE000BAF84FF480716846FFF7B5F84FF4A06087
:100FF000FFF732FB4FF41650FFF700FEFFF7D8F96A
:101000001F48204908603AE0FFF7D6FB90BB40A894
:10101000FFF778FA68BBFF2140A8FFF7A9FA9DF80F
:101020000041022C1DD19DF80101A32808D19DF893
:101030000201BA2804D1E1016846FFF7CAF81EE0B0
:101040009DF80101A1280CD19DF80201A32808D127
:101050006846FFF7F3FB4FF480716846FFF7B9F875
:101060000DE023460DF201124FF480716846FFF740
:1010700097F803E0FFE70A20FFF7D9F800BFC3E7BE
:10108000F70100081C000020F0B50B30154D20F0D2
:1010900007010024144A0FE003688B420BD38B42F4
:1010A00005D95E1A43184768C3E9006700E0436842
:1010B000136002C004E0021D10680028ECD1204635
:1010C000002802D1286808B10020F0BD064A074870
:1010D0001060074A121A22F00702C0E9002401201A
:1010E0002860D7E7300000202C0000203C010020C1
:1010F0003803002014110008000000203400000014
:10110000680F0008481100083400002004070000A0
:10111000780F00080000000001020304010203042C
:10112000060708090204060800000000000000008D
:1011300000000000FFFFFFFFFFFFFFFFFFFF0000B9
:081140000000000000000000A7
:04000005080000ED02
:00000001FF
