:0317BD000217B45C
:0A175600112233445500000000008A
:100F7600450005FFFFFFFF00450000FFFFFFFFFFE5
:0A149C00EBF0A3EAF0A3E9F0C2A60A
:1014A600E4FEEF3392A4EF25E0FFD2A5A2A3E43336
:0914B6004FFFC2A50EEEB408E9D7
:0114BF00220A
:0B15A2007F071216F9AB07AD037F278F
:1015AD00C2A61214A6AC07AF051214A6D2A6AF049C
:0115BD00220B
:0C16F900C2A61214A67FFF1214A6D2A6EF
:0117050022C1
:0312C10090009901
:1012C40012149CAD07E4FC90009CE0FFECC39F501B
:1012D4001C7FFF1214A6900099E0FBA3E0FAA3E0A0
:1012E400F98C82758300EF1203F20C80DAD2A6AF78
:0112F40005F4
:0112F50022D6
:0A116B007B019000A17405F07F30B5
:0311750090009E49
:1011780012149CAD07E4FC9000A1E0FFECC39F5063
:101188001A90009EE0FBA3E475F00112049FA9F0F9
:0F119800FA1203D9FF1214A60C80DCD2A6AF0501
:0111A7002225
:0610A7007B017A00790ACA
:0B10AD009000ABEBF0A3EAF0A3E9F029
:1010B8001215A2EB30E629C2A79000ABE0FBA3E033
:1010C800FAA3E0F990009C7420F07F611212C17DB0
:1010D800FF7FE21215ADD2A77F961215BE7F0022C0
:0210E8007F0186
:0110EA0022E3
:10132A00C2A79000A17420F07FA0121175D2A72045
:10133A00A2FD1215A2EB30E40A7DFF7FE11215AD82
:0C134A007F1022EB30E5037F20227FFFA4
:011356002274
:0F16BF00C2A712116D7D0E7F201215ADD2A7228A
:0C171300C2A77D0F7F201215ADD2A722C7
:100DFC0078657C007D017BFF7A1779567E007F0534
:100E0C001203B3786A7C007D017BFF7A17795B7ED5
:100E1C00007F051203B3C2A5D2A6C2A77A007965DA
:100E2C0012116B7B017A00796A90009C7405F07F3B
:100E3C00101212C190006AE064117017A3E0B42282
:100E4C0012A3E0B4330DA3E0B44408A3E0B45503FB
:050E5C007F00227F0170
:010E6100226E
:100E6200120DFCEF70FAC2A77D207F311215AD7D05
:100E7200FF7FE21215AD7A00790512116B7B017AC0
:100E82000079009000A17405F07F2A1211757D018E
:100E92007F211215AD7F221215AD7D1A7F24121506
:100EA200ADE4FD7F251215AD7D0F7F261215AD7FB6
:100EB200201215AD7DFF7FE21215AD7FE11215AD57
:030EC200D2A72292
:08121D007B017A00790A7DA52E
:101225009000AEEBF0A3EAF0A3E9F0900009EDF031
:101235007B017A0079051216BF7F0F1215BE90004B
:0F124500AEE0FBA3E0FAA3E0F912132A0217139D
:10145100120E6220A2191210A7EF701312121D9022
:10146100000BE0FFB43102C290EFB43202D2907FA0
:061471000A12168F80DD57
:03105F00120E620C
:101062001209F290002AEEF0A3EFF020A20912106A
:10107200A7EF700312121D90002AE0FEA3E0FFD337
:0910820094FFEE6480947F401598
:10108B0090002DEFF090002C7401F0FB7A00792C7E
:05109B007DA5121225E5
:0510A0007F0A12168F0B
:0210A50080BB0E
:0417B900D28080FC5E
:1009F200E49000B1F074FFA3F0A3F075900FE590BE
:100A0200640F7003020A957F0A12168FE590640F35
:100A12007003020A95AF90EF24F5601424FE601A69
:100A220014602224077027E49000B2F0A3F0801E25
:100A32009000B2E4F0A304F080149000B2E4F0A3BA
:100A42007402F080099000B2E4F0A37403F0759090
:100A5200F0AF90EF2450601D24E0602124F0602567
:100A62002470702F9000B2E0FFA3E09000B2CFF0AC
:100A7200A3EFF0801E9000B3E02404800E9000B338
:100A8200E0240880069000B3E0240CF09000B2E06D
:0B0A92003400F09000B2E0FEA3E0FF93
:010A9D002236
:10166C001209F29000BAEFF0E090167E93F4F58038
:02167C0080EEFE
:100B47007FBFDFEFF7FBFDFE0102040810204080A6
:100B570000003E4141413E0000000000217F0100AE
:100B6700000027454545390000002249494936001C
:100B770000000C14247F04000000725151514E00F4
:100B870000003E494949260000004040404F7000A0
:100B970000003649494936000000324949493E00BC
:100BA70000007F484830000000007F484C73000079
:100BB70000007F494949000000003E4141620000B2
:100BC70000007F08087F0000000000FFFF00000012
:100BD700007F1008047F00007C4848FF48487C00DD
:080BE7007C44FF457D03000082
:1012F60075807FE49000BBF09000BBE0FF900B4749
:1013060093F580EF900B5793FF1214037F0112158C
:10131600BEE4FF1214039000BBE004F0E0C394089F
:0413260040D680CF5E
:10076A00E49000B5F0E49000B4F09000B4E0FFC368
:10077A009408501EEF900B4793F5807FFF121403E5
:10078A007FE812168FE4FF1214039000B4E004F01D
:10079A0080D89000B5E004F0E0C3940340C7E49029
:1007AA0000B5F0E49000B4F09000B4E0FFC3940800
:1007BA005029C374079FFFE49400FE74472FF58203
:1007CA00740B3EF583E493F5807FFF1214037FE8F0
:1007DA0012168F9000B4E004F080CD9000B5E004CA
:1007EA00F0E0C3940340BCE49000B5F0E49000B498
:1007FA00F09000B4E0FFC394085029E4F580C37474
:10080A00079FFFE49400FE744F2FF582740B3EF5A8
:10081A0083E493FF1214037FE812168F9000B4E06A
:10082A0004F080CD9000B5E004F0E0C3940340BC2E
:10083A00E49000B5F09000B5E0C3940340030207CA
:10084A006AE49000B4F09000B4E0FFC39408501931
:10085A00E4F580EF900B4F93FF1214037FE8121612
:10086A008F9000B4E004F080DD9000B5E004F080E1
:01087A00C4B9
:10094100E4900086F0A3F090008AE475F0011204AF
:100951009FFEC3E5F094F4EE9401506BE49000889F
:10096100F0A3F0C3900089E09408900088E094001F
:1009710050D5E0FCA3E0FD2447F582740B3CF583E0
:10098100E493F580900086E0FEA3E07803C333CEC4
:1009910033CED8F92457F582740B3EF583E5822DC9
:1009A100F582E5833CF583E493FF1214037F011282
:1009B10015BEE4FF121403900089E004F070A490C6
:1009C1000088E004F0809CE490008AF0A3F090009D
:1009D10087E004F07006900086E004F0C390008781
:1009E100E09413900086E094005003020948020944
:0109F10041C4
:100D0E00E49000BCF09000BCE0FFC394085073EF79
:100D1E00B40800504D900D2AF8282873020D420297
:100D2E000D46020D4E020D52020D5A020D5E020DBF
:100D3E0066020D6AC2A28002D2A2C2A3C2A48022FF
:100D4E00C2A28002D2A2D2A3C2A48016C2A28002E4
:100D5E00D2A2C2A3D2A4800AC2A28002D2A2D2A3DD
:100D6E00D2A49000BCE0246FF582E43400F583E059
:100D7E00F5807F011215BEE4F5809000BCE004F012
:020D8E00808360
:010D90002240
:0B171F00EF1FAC0670011E4C70F6229C
:1015BE00AE071FEE6015E4FCFDC3ED940CEC6480E9
:0B15CE00948050EC0DBD00010C80EE7D
:0115D90022EF
:10168F00AB07AF031BEF60077F201215BE80F3225D
:10167E003F065B4F666D7D077F6F777C395E7971B4
:01168E0076E5
:10140300D2B6D2B5E4FEEFC4131313540124FF92F2
:10141300B4EF25E0FFC2B60000D2B60EEEB408E684
:06142300C2B50000D2B5C5
:0114290022A0
:040F86004100A60080
:0B172A00EF1FAC0670011E4C70F62291
:07179F00D288D2A8D2AF22CC
:0717A600D28AD2AAD2AF22C1
:10169F00438901758CFC758A18D2A9D2AFD28C22DE
:1016AF00438910758DFC758B18D2ABD2AFD28E22B9
:030003000214C024
:1014C000C0E0C0D075D000C004C006C0077FE87E71
:1014D0000312172A20B202B2A0D007D006D004D03F
:0414E000D0D0E03256
:030013000214E4F0
:1014E400C0E0C0D075D000C004C006C0077FE87E4D
:1014F4000312172A20B302B2A0D007D006D004D01A
:04150400D0D0E03231
:03000B000211E3FC
:0811E300C0E0C083C082C0D04F
:1011EB00758CFC758A189000A3E004F070069000D3
:1011FB00A2E004F09000A2E0B4030EA3E0B4E8096F
:09120B009000A2E4F0A3F0B2A0EF
:09121400D0D0D082D083D0E032AA
:03001B00020F21B0
:0D0F2100C0E0C083C082C0D075D000C00702
:100F2E00758DFC758B189000A5E004F0700690008E
:100F3E00A4E004F09000A4E0B40322A3E0B4E81D02
:100F4E009000A4E4F0A3F0A3E0FF04F0EF90167E6F
:0D0F5E0093F4F5809000A6E0B41002E4F0DA
:0B0F6B00D007D0D0D082D083D0E0327D
:0500060012179F80FEAF
:05000E001217A680FEA0
:0500160012169F80FEA0
:05001E001216AF80FE88
:0516DD001216E2D2A18B
:0816E2007F017E02DEFEDFFA4B
:0116EA0022DD
:0F16CE00D2A01216DDC2A01216E2C2A10216E2CD
:0A176000C2A01216DDD2A00216E2AC
:0210EB00AD074F
:1010ED00E4FBFAEDC4131313540124FF92A0ED2574
:1010FD00E0FD1216DDC2A11216E20BEBB408E4D22C
:10110D00A01216E2D2A130A00F0AEAD394C840F67D
:0F111D00C2A11216E27F0022C2A11216E27F01C8
:01112C0022A0
:10142A00E4FDFCD2A01216E2D2A11216E2EC25E0EB
:10143A00FCA2A0E4334CFC1216E2C2A11216E20D81
:06144A00EDB408E4AF045C
:011450002279
:1015F500AC05A9071216CE7FA01210EBAF01121091
:09160500EBAF041210EB021760B8
:02150800AC072E
:10150A001216CE7FA01210EBAF041210EB1216CEF9
:0F151A007FA11210EB12142AAD07121760AF0554
:01152900229F
:040F8A004100BD0065
:100D910020B0157F0A12168F20B00A9000BDE0FD29
:100DA1007F011215F530B0FD20B1157F0A12168FA3
:100DB10020B10A7F011215089000BDEFF030B1FD9E
:100DC10020B2247F0A12168F20B2199000BDE004D0
:100DD100F0E0FF3395E0FED3EF94FFEE6480948062
:100DE1004002E4F030B2FD20B3107F0A12168F20CA
:0B0DF100B305E49000BDF030B3FD221C
:100BEF009000BDE0FB3395E0FA7C037DE8AF03FE98
:100BFF00120469747E2FF58274163EF583E4939088
:100C0F00006FF07C037DE8AF03AE02120469AA0403
:100C1F00AB057D647C00AF03AE02120469747E2FB6
:100C2F00F58274163EF583E493900070F07D647C3A
:100C3F0000AF03AE02120469AA04AB057D0A7C0063
:100C4F00AF03AE02120469747E2FF58274163EF55F
:100C5F0083E493900071F07D0A7C00AF03AE021223
:100C6F000469747E2DF58274163CF583E49390002D
:030C7F0072F022EE
:0B173500120D91120BEF120D0E80F54B
:10154A00D3EF9400EE940040147D6E7C00ED1D7084
:0D155A00011CED4C70F7EF1F70E61E80E3E2
:011567002261
:10147700C2B77B46AF031BEF70FAD2B7E4FB30B7B6
:10148700117F017E0012154A0BEBD3940540EF7FC5
:0414970000227F01AF
:01149B00222E
:0C0FC7001214777F017E0012154A7FCCC7
:100FD300E4FBFAC2B79000B7E004F070069000B6E5
:100FE300E004F0EF1392B79000B6E4F0A37406F0B8
:100FF3009000B674FFF5F012049F45F070F2D2B77B
:0F100300EFC313FF0BBB00010AEB64084A70C474
:0110120022BB
:10112D007D087C00C2B70FBF0000D2B70FBF000013
:10113D000FBF0000A2B7E433C43333335480FBE94F
:10114D00C3134BF97E007F04EF1FAA0670011E4AE0
:0D115D0070F6ED1D70011CED4C70C9AF0166
:01116A002262
:08178700120FC77F44020FD3CB
:08178F00120FC77FBE020FD349
:1015DA00E4FFFE12178712178F12112D9000BEEF2B
:0A15EA00F012112DEFFEE0FDEDFF01
:0115F40022D4
:04064F00AB07AA0645
:10065300C3EA64809480501690006F7440F0EB1BE3
:1006630070011AEBF4FBEAF4FAAD03FC800AE490A0
:10067300006FF0AD03AC02EC1202299000A7120444
:10068300C3E4FFFE7DC87C409000A7E0F8A3E0F937
:10069300A3E0FAA3E0FB12011EE4FBFAF9783F1290
:1006A300002D120262AA06AB077C277D10AF03AEB2
:1006B30002120469747E2FF58274163EF583E49367
:1006C300900070F07C277D10AF03AE021204697EA8
:1006D300037FE8CFCDCFCECCCE120469747E2FF545
:1006E3008274163EF583E493900071F07C037DE8F9
:1006F300AF03AE021204697E007F64CFCDCFCECCB0
:10070300CE120469747E2FF58274163EF583E4934A
:100713004480900072F07C007D64AF03AE0212044B
:10072300697E007F0ACFCDCFCECCCE120469747E12
:100733002FF58274163EF583E493900073F0AE02B6
:10074300AF037C007D641204697E007F0ACFCDCFA6
:10075300CECCCE120469747E2DF58274163CF583DB
:06076300E493900074F025
:01076900226D
:0B1740001215DA12064F120D0E80F594
:0E16EB0081838587898B8D80828486888A8C96
:0A0F8E0047007F0000120705061659
:10125400C2B500C2B600D2B500E4FEEF1392B4EFFB
:10126400C313FFD2B600C2B6000EEEB408EDE4FE1E
:10127400ED1392B4EDC313FDD2B600C2B6000EEE68
:06128400B408EDC2B50044
:01128A002241
:10101300C2B500C2B600D2B500E4FDEF1392B4EF3F
:10102300C313FFD2B600C2B6000DEDB408ED00E461
:10103300FDA2B4E433FFC43333335480FCEEC31353
:101043004CFED2B600C2B6000DEDB408E4C2B50042
:0B105300D2B600C2B400D2B400AF0659
:01105E00226F
:1013AF00E4FD7F8E121254E4FCEC9016F293FF745E
:1013BF007F2CF582E43400F583E0FD1212540CEC1F
:0A13CF00B407E67D807F8E02125401
:10156800E4FBEB9016EB93FF121013747F2BF582BC
:0C157800E43400F583EFF00BEBB407E661
:011584002244
:100EC500121568900081E0FF54F090167E93900013
:100ED5006FF0EF540F90167E93900070F0A374405E
:100EE500F0900080E0FFC4540F90167E939000723E
:100EF500F0EF540F90167E93900073F0A37440F0BA
:100F050090007FE0FFC4540F90167E93900075F01B
:0C0F1500EF540F90167E93900076F022AF
:0B174B001213AF120EC5120D0E80F835
:09177E00D288D2A8D2AFD2B22267
:030003000204CF25
:1004CF00C0E0C0F0C083C082C0D075D000C000C0F3
:0D04DF0001C002C003C004C005C006C00774
:1004EC00900096E4F07FBC7E0212171F30B203021C
:1004FC0006349000947403F0A374E8F020B226D371
:10050C00900095E09400900094E0940040177F01D7
:10051C007E0012171F900095E024FFF0900094E0ED
:10052C0034FFF080D720B20302063490009474019B
:10053C00F0A374F4F030B226D3900095E0940090C0
:10054C000094E0940040177F017E0012171F90006A
:10055C0095E024FFF0900094E034FFF080D79000F9
:10056C0093E4F0900092E4F0900094E4F0A3743CD7
:10057C00F020B226D3900095E09400900094E09483
:10058C000040177F017E0012171F900095E024FF9A
:10059C00F0900094E034FFF080D79000947401F058
:1005AC00A374F4F030B235D3900095E09400900031
:1005BC0094E0940040267F0A7E0012171F9000964C
:1005CC00E004F0900095E024FFF0900094E034FFFC
:1005DC00F0900096E0D3941E40CA804C900093E0BB
:1005EC00FF248CF582E43400F583E0C313F0900013
:1005FC0096E0C39408400E748C2FF582E43400F519
:10060C0083E04480F0900096E4F0900092E004F0D7
:10061C00E0C394085003020574900093E004F0E0EA
:08062C00C39404500302056FA2
:10063400D007D006D005D004D003D002D001D0001A
:0B064400D0D0D082D083D0F0D0E032C4
:1013570012177E90008EE0FFC4540F90167E939074
:10136700006FF0EF540F90167E93900070F0901678
:0C1377008EE493900071F0120D0E80D7F0
:10158500C2B6E4FEEFC4131313540124FF92B4EF63
:0C15950025E0FFC2B6D2B60EEEB408E8A6
:0115A1002227
:1011A800E49000B8F0A3F0C2B6FDFC9000B9E025C9
:1011B800E0F09000B8E033F0D2B6C2B6A2B7E4339C
:1011C800FFE0F0A3E04FF00DBD00010CED640C4C06
:0A11D80070D99000B8E0FEA3E0FF1C
:0111E20022EA
:10160E00C2B6C2B51215857F06DFFED2B60000C285
:08161E00B600001211A8D2B5BC
:0116260022A1
:10087B009000BFE0B4320BE4F07F9412160EAA0680
:10088B00AB079000BFE004F07C037DE8AF03AE0242
:10089B00120414747E2FF58274163EF583E4939044
:1008AB00006FF07C037DE8AF03AE021204147E00F0
:1008BB007F64CFCDCFCECCCE120414747E2FF582B5
:1008CB0074163EF583E493900070F07C037DE8AFE3
:1008DB0003AE021204147E007F64CFCDCFCECCCEFC
:1008EB001204147E007F0ACFCDCFCECCCE120414CF
:1008FB00747E2FF58274163EF583E493900071F0AD
:10090B007C037DE8AF03AE021204147E007F64CF3C
:10091B00CDCFCECCCE1204147E007F0ACFCDCFCE5E
:10092B00CCCE120414747E2DF58274163CF583E440
:05093B0093900072F032
:010940002294
:0817970012087B120D0E80F810
:0F0F980042007D03E8420079000042007700002C
:0717AD00758CFF758AFF2215
:0D1706004389011217ADD2AFD2A9D28C22B7
:03000B000213835A
:10138300C0E0C083C0821217AD90007AE004F07011
:1013930006900079E004F0900078E004F070069085
:0C13A3000077E004F0D082D083D0E0326C
:100A9E0012170690007DE0FAA3E0FB7C007D0AFFB2
:100AAE00AE02120469D3900078E09FEE6480F89055
:100ABE000077E06480984026E4F0A3F030000E90BA
:100ACE00007CE004F0700690007BE004F020000E45
:100ADE0090007CE024FFF090007BE034FFF090006B
:100AEE007BE0FEA3E0FFB50306EEB50202C200EF07
:100AFE004E7002D20090007DE0FEA3E0FFD3900086
:100B0E007AE09FEE6480F8900079E064809840046B
:100B1E00E4F0A3F090007BE0FEA3E0FFC390007A28
:100B2E00E09FEE6480F8900079E06480985005D2E2
:090B3E00A1020AA1C2A1020AA150
:100FA70050004C204C69616E6767616E4E6F2E3141
:0F0FB70033200049005C203636363636362000AF
:1013D900C2A58F807F017E001213EAD2A77F057E06
:0113E9000003
:1013EA00D3EF9400EE9400400F7DC77C01DCFEDD54
:0813FA00FAEF1F70EB1E80E802
:0114020022C7
:0A176A00C2A7C2A61213D9C2A7221B
:0A177400C2A7D2A61213D9C2A72201
:101627007F3812176A7F0C12176A7F0612176A7FB4
:091637000112176A7F8002176A94
:10128B00121627E4FB744C2BF582E43400F583E053
:10129B00FF1217740BEBB410EC7FC012176AE4FB50
:1012AB00745C2BF582E43400F583E0FF1217740BAA
:0612BB00EBB410EC80FE14
:10164000759850758920758DF9758BF9758780D2DD
:06165000ACD2AFD28E22E5
:10165600759850E4F587758920758BFA758DFAC2F1
:06166600ABD28ED2AC22D3
:0300230002152A99
:09152A00C0E0C083C082309810BB
:10153300900097E599F0C298E0F5993099FDC2992A
:07154300D082D083D0E0321A
:0517B40012164080FE4A
:100026000202CEE86480F8E933E83360110460F038
:10003600ED33EC337009E8FCE9FDEAFEEBFF220440
:1000460060DED3EB9FEA9EE99DE8C2E78CF0C2F73B
:1000560095F0400CE8CCF8E9CDF9EACEFAEBCFFB07
:1000660012029985D0F05804700320D5B3E80470C5
:10007600075002B2D50202D892D5EC0460F7E4CC60
:10008600C0E0C398F8603B94186008400DD0E0FBD0
:100096000202B0E4FBFAC9FC8028E830E406E4C9B1
:1000A600FBE4CAFCE830E305E4C9CACBFCE8540724
:1000B6006010F8C3E913F9EA13FAEB13FBEC13FC2F
:1000C600D8F130F52FC3E49CFCEF9BFFEE9AFEEDD2
:1000D60099FDD0E0FBEF4E4D4C701222DB0302027D
:1000E600D5EC2CFCEF33FFEE33FEED33FDED30E7C0
:1000F600EB0202B0EF2BFFEE3AFEED39FDD0E0FB4E
:1001060050130BBB00030202D8ED13FDEE13FEEFF6
:0801160013FFEC13FC0202B020
:10011E00EC4D6011E8497017ED33EC3304600DE4DB
:10012E00FCFFFEFD22E933E8330470F80202CE1222
:10013E00029958046009E4CC248150062850090223
:10014E0002D82840030202D5C0E0EB4A7044B980C1
:10015E0006D0E0FB0202C4EF4E701CBD8008EBFF20
:10016E00EAFEE9FD80EBE98DF0A4FEE5F002020760
:10017E00E9CDF9EAFEEBFFEF89F0A4FCE5F0CE89BC
:10018E00F0A42EFFE435F0CD89F0A42DFEE435F079
:10019E008067EF4E7005BD80D780C3EF8BF0A4ACA7
:1001AE00F0EE8BF0A42CFCE435F0F8EF8AF0A42CE2
:1001BE00E5F038FCE433CB8DF0A42CFCE5F03BF8F5
:1001CE00EE8AF0A42CFCE5F038F8E433CF89F0A4E5
:1001DE002CFCE5F038CF3400CE89F0A42FFFE5F0EB
:1001EE003EFEE433C98DF0A42EFEE5F039CD8AF043
:1001FE00A42FFFE5F03EFEE43DFD33D0E0FB5007BB
:10020E000BBB000F0202D8EC2CFCEF33FFEE33FEDB
:06021E00ED33FD0202B009
:1002240075F020800E75F010800575F0087D007E55
:10023400007F003392D530D5031204B5EC3340105F
:10024400EF33FFEE33FEED33FDEC33FCD5F0ED225E
:0E025400E5F0247EA2D513CC92E7CDCEFF229A
:10026200EDD2E7CD33EC3392D524814006E4FFFE94
:10027200FDFC22FCE4CFCECDCC24E0501174FF80F3
:10028200EDC3CC13CCCD13CDCE13CECF13CF047090
:07029200F030D5DE0204B5D7
:10029900E9D2E7C933E833F892D5EDD2E7CD33ECAB
:0702A90033FC5002B2D52224
:1002B000EC30E7100FBF000C0EBE00080DBD0004AF
:1002C0000BEB6014A2D5EB13FCED92E7FD2274FF5B
:1002D000FCFDFEFF22E480F8A2D574FF13FC7D80B4
:0302E000E480EFC8
:03000000020C826D
:0C0C8200787FE4F6D8FD758120020CC9D3
:1002E300E709F608DFFA8046E709F208DFFA803EFD
:1002F30088828C83E709F0A3DFFA8032E309F608EA
:10030300DFFA8078E309F208DFFA807088828C8351
:10031300E309F0A3DFFA806489828A83E0A3F60805
:10032300DFFA805889828A83E0A3F208DFFA804CDF
:1003330080D280FA80C680D4806980F280338010B6
:1003430080A680EA809A80A880DA80E280CA80331F
:1003530089828A83ECFAE493A3C8C582C8CCC58397
:10036300CCF0A3C8C582C8CCC583CCDFE9DEE78067
:100373000D89828A83E493A3F608DFF9ECFAA9F0E6
:10038300EDFB2289828A83ECFAE0A3C8C582C8CC3C
:10039300C583CCF0A3C8C582C8CCC583CCDFEADE55
:1003A300E880DB89828A83E493A3F208DFF980CCB7
:1003B30088F0EF60010E4E60C388F0ED2402B404B0
:1003C3000050B9F582EB2402B4040050AF23234557
:0603D30082239003337346
:1003D900BB010689828A83E0225002E722BBFE0222
:0903E900E32289828A83E4932255
:1003F200F8BB010DE58229F582E5833AF583E8F041
:10040200225006E92582C8F622BBFE05E92582C8EC
:02041200F222D4
:10041400BC000BBE0029EF8DF084FFADF022E4CCCC
:10042400F875F008EF2FFFEE33FEEC33FCEE9DEC95
:10043400984005FCEE9DFE0FD5F0E9E4CEFD22EDDB
:10044400F8F5F0EE8420D21CFEADF075F008EF2F25
:10045400FFED33FD4007985006D5F0F222C398FD16
:050464000FD5F0EA22B3
:10046900C2D5EC30E709B2D5E4C39DFDE49CFCEEAE
:1004790030E715B2D5E4C39FFFE49EFE120414C30E
:10048900E49DFDE49CFC800312041430D507C3E409
:060499009FFFE49EFE221D
:10049F00A3F8E0C5F025F0F0E58215827002158310
:0604AF00E0C838F0E8226D
:0E04B500C3E49FFFE49EFEE49DFDE49CFC2258
:0C04C300ECF0A3EDF0A3EEF0A3EFF022AC
:100C8E000217BDE493A3F8E493A34003F68001F2A8
:100C9E0008DFF48029E493A3F85407240CC8C33367
:100CAE00C4540F4420C8834004F456800146F6DF36
:100CBE00E4800B0102040810204080900F76E47E41
:100CCE00019360BCA3FF543F30E509541FFEE4932B
:100CDE00A360010ECF54C025E060A840B8E493A3F2
:100CEE00FAE493A3F8E493A3C8C582C8CAC583CA1D
:100CFE00F0A3C8C582C8CAC583CADFE9DEE780BED5
:010FC600002A
:00000001FF
