:03050C001204AC2A
:10050F001203CA8E328F3320A2167B007A00791223
:10051F001205BEEF700AFB7A0079127DA512069DB7
:0D052F00D3E53394FFE5326480947F4011E2
:10053C008533357534017B007A0079347DA512063C
:01054C009D11
:05054D007F0A120721E6
:0205520080BB6C
:0307850002062049
:0A0777001122334455000000000079
:0E074000050DFFFFFFFF000508FFFFFFFFFF95
:1006F700E4FEEF3392A4EF25E0FFD2A5A2A3E433F3
:080707004207C2A50EBE08EA7C
:01070F0022C7
:0B06BF007F0712075EAB07AD037F272B
:1006CA00C2A61206F7AC07AF051206F7D2A6AF0408
:0106DA0022FD
:0C075E00C2A61206F77FFF1206F7D2A613
:01076A00226C
:06058D008B658A66896798
:10059300C2A61206F7AD07E4FCECC3956850177FBB
:1005A300FF1206F7AB65AA66A9678C82758300EF15
:0A05B3001201120C80E3D2A6AF057E
:0105BD00221B
:070554007B00756D057F308F
:06055B008B6A8A6B896CBB
:10056100C2A61206F7AD07E4FCECC3956D5018ABBB
:100571006A056CE56CAA6B7002056B14F91200F93F
:0B058100FF1206F70C80E2D2A6AF05C7
:01058C00224C
:0605BE008B6E8A6F89704C
:1005C4001206BFEB30E621C2A7AB6EAA6FA9707505
:1005D40068207F6112058D7DFF7FE21206CAD2A7D3
:0A05E4007F961206DB7F00227F01E4
:0105EE0022EA
:10064D00C2A7756D207FA012055BD2A720A2FD1257
:10065D0006BFEB30E40A7DFF7FE11206CA7F102250
:09066D00EB30E5037F20227FFF42
:010676002261
:0F073100C2A71205567D0E7F201206CAD2A7223C
:0C076B00C2A77D0F7F201206CAD2A72271
:10044C0078547C007D007BFF7A0779777E007F05EE
:10045C001200D378597C007D007BFF7A07797C7E73
:10046C00007F051200D3C2A5D2A6C2A77A00795488
:10047C001205547B007A0079597568057F101205B6
:10048C008DE559B41117E55AB42212E55BB4330D5E
:0F049C00E55CB44408E55DB455037F00227F01A1
:0104AB00222E
:1004AC0012044CEF70FAC2A77D207F311206CA7D70
:1004BC00FF7FE21206CA7A00790D1205547B007A8E
:1004CC00007908756D057F2A12055B7D017F21126D
:1004DC0006CA7F221206CA7D1A7F241206CAE4FDC0
:1004EC007F251206CA7D0F7F261206CA7F201206B0
:1004FC00CA7DFF7FE21206CA7FE11206CAD2A7228A
:10069D008B718A7289738D117B007A00790D120727
:1006AD00317F0F1206DBAB71AA72A97312064D02D0
:0206BD00076BC9
:1005EF001204AC20A2247B007A0079121205BEEF10
:1005FF007018FB7A0079127DA512069DE513B431B0
:10060F0002C290E513B43202D2907F0A1207218002
:01061F00D208
:04078100D28080FCA6
:100710003F065B4F666D7D077F6F777C395E797131
:0107200000D8
:1003CA00E4F57474FFF575F57675900FE590640F92
:1003DA00606B7F0A120721E590640F6060AF90EFAF
:1003EA0024F5601224FE601614601B2407701DE4B5
:1003FA00F575F5768016757500757601800E75753A
:10040A000075760280067575007576037590F0AFF3
:10041A0090EF2450601424E0601424F060142470D7
:10042A00701B85757585767680137404800674084A
:10043A008002740C2576F576E43575F575AE75AFE0
:01044A00763B
:01044B00228E
:0D074F001203CA8F79EF90071093F4F58024
:02075C0080F12A
:100206007FBFDFEFF7FBFDFE0102040810204080F0
:1002160000003E4141413E0000000000217F0100F8
:100226000000274545453900000022494949360066
:1002360000000C14247F04000000725151514E003E
:1002460000003E494949260000004040404F7000EA
:1002560000003649494936000000324949493E0006
:1002660000007F484830000000007F484C730000C3
:1002760000007F494949000000003E4141620000FC
:1002860000007F08087F0000000000FFFF0000005C
:10029600007F1008047F00007C4848FF48487C0027
:0802A6007C44FF457D030000CC
:1006200075807FE4F57AE57A90020693F580E57AA5
:1006300090021693FF1206777F011206DBE4FF1289
:0D0640000677057AE57AC3940840DB80D682
:10013400E4F578E4F577E57790020693F5807FFFA0
:100144001206777FE8120721E4FF1206770577E5A8
:1001540077C3940840E00578E578C3940340D4E479
:10016400F578E4F577C374079577FFE49400FE749B
:10017400062FF58274023EF583E493F5807FFF1227
:1001840006777FE81207210577E577C3940840D501
:100194000578E578C3940340C9E4F578E4F577E499
:1001A400F580C374079577FFE49400FE740E2FF571
:1001B4008274023EF583E493FF1206777FE8120708
:1001C400210577E577C3940840D50578E578C3948D
:1001D4000340C9E4F578E578C3940340030201348D
:1001E400E4F577E4F580E57790020E93FF12067745
:1001F4007FE81207210577E577C3940840E5057881
:0202040080D4A4
:1002AE00E4F55EF55F0563E563AE62700205621408
:1002BE00C394F4EE9401505CE4F560F561C3E5611E
:1002CE009408E560940050DD74062561F582740291
:1002DE003560F583E493F580E55FAE5E7803C33356
:1002EE00CE33CED8F92416F58274023EF583E5821C
:1002FE002561F582E5833560F583E493FF12067779
:10030E007F011206DBE4FF1206770561E56170AD31
:10031E00056080A9E4F562F563055FE55F7002058F
:10032E005EC39413E55E940050030202B30202AE64
:1006DB00AE071FEE6015E4FCFDC3ED940CEC6480DB
:0B06EB00948050EC0DBD00010C80EE6F
:0106F60022E1
:10072100AB07AF031BEF60077F201206DB80F322CC
:10067700D2B6D2B5E4FEEFC4131313540124FF928C
:10068700B4EF25E0FFC2B60000D2B60EBE08E7C23F
:05069700B50000D2B522
:01069C00223B
:0300000002033EBA
:0C033E00787FE4F6D8FD75817A02038513
:10000300E709F608DFFA8046E709F208DFFA803EDF
:1000130088828C83E709F0A3DFFA8032E309F608CC
:10002300DFFA8078E309F208DFFA807088828C8334
:10003300E309F0A3DFFA806489828A83E0A3F608E8
:10004300DFFA805889828A83E0A3F208DFFA804CC2
:1000530080D280FA80C680D4806980F28033801099
:1000630080A680EA809A80A880DA80E280CA803302
:1000730089828A83ECFAE493A3C8C582C8CCC5837A
:10008300CCF0A3C8C582C8CCC583CCDFE9DEE7804A
:100093000D89828A83E493A3F608DFF9ECFAA9F0C9
:1000A300EDFB2289828A83ECFAE0A3C8C582C8CC1F
:1000B300C583CCF0A3C8C582C8CCC583CCDFEADE38
:1000C300E880DB89828A83E493A3F208DFF980CC9A
:1000D30088F0EF60010E4E60C388F0ED2402B40493
:1000E3000050B9F582EB2402B4040050AF2323453A
:0600F3008223900053730C
:1000F900BB010689828A83E0225002E722BBFE0205
:09010900E32289828A83E4932237
:10011200F8BB010DE58229F582E5833AF583E8F023
:10012200225006E92582C8F622BBFE05E92582C8CF
:02013200F222B7
:10034A00020785E493A3F8E493A34003F68001F23D
:10035A0008DFF48029E493A3F85407240CC8C333B4
:10036A00C4540F4420C8834004F456800146F6DF83
:10037A00E4800B0102040810204080900740E47ECC
:10038A00019360BCA3FF543F30E509541FFEE49378
:10039A00A360010ECF54C025E060A840B8E493A33F
:1003AA00FAE493A3F8E493A3C8C582C8CAC583CA6A
:1003BA00F0A3C8C582C8CAC583CADFE9DEE780BE22
:01074E0000AA
:00000001FF
