:030B4B00120AE8A3
:100B4E001207A490002AEEF0A3EFF020A2177B016B
:100B5E007A00790A120C84EF700B7B017A00790A05
:100B6E007DA5120E1490002AE0FEA3E0FFD394FFA1
:070B7E00EE6480947F401536
:100B850090002DEFF090002C7401F0FB7A00792C89
:050B95007DA5120E1405
:050B9A007F0A12105952
:020B9F0080AD27
:031114000210378F
:0A10D900112233445500000000000E
:100FE200450005FFFFFFFF00450000FFFFFFFFFF79
:0A0EE300EBF0A3EAF0A3E9F0C2A6C9
:100EED00E4FEEF3392A4EF25E0FFD2A5A2A3E433F5
:090EFD004FFFC2A50EEEB408E996
:010F060022C8
:0B0F8F007F071210B5AB07AD037F27F2
:100F9A00C2A6120EEDAC07AF05120EEDD2A6AF0433
:010FAA002224
:0C10B500C2A6120EED7FFF120EEDD2A6B7
:0110C100220C
:030D770090006584
:100D7A00120EE3AD07E4FC900068E0FFECC39F505D
:100D8A001C7FFF120EED900065E0FBA3E0FAA3E0E2
:100D9A00F98C82758300EF1203EA0C80DAD2A6AFCF
:010DAA000543
:010DAB002225
:0A0D00007B0190006D7405F07F3058
:030D0A0090006AEC
:100D0D00120EE3AD07E4FC90006DE0FFECC39F50C5
:100D1D001A90006AE0FBA3E475F001120442A9F0F9
:0F0D2D00FA1203D1FF120EED0C80DCD2A6AF0537
:010D3C002294
:0B0C840090007CEBF0A3EAF0A3E9F085
:100C8F00120F8FEB30E629C2A790007CE0FBA3E0A8
:100C9F00FAA3E0F99000687420F07F61120D777D60
:100CAF00FF7FE2120F9AD2A77F96120FAB7F00221F
:020CBF007F01B3
:010CC1002210
:100E4300C2A790006D7420F07FA0120D0AD2A720D4
:100E5300A2FD120F8FEB30E40A7DFF7FE1120F9AA0
:0C0E63007F1022EB30E5037F20227FFF90
:010E6F002260
:0F108900C2A7120D027D0E7F20120F9AD2A7224E
:0C10C200C2A77D0F7F20120F9AD2A72238
:100A8200784C7C007D017BFF7A1079D97E007F054E
:100A92001203AB78517C007D017BFF7A1079DE7EF8
:100AA200007F051203ABC2A5D2A6C2A77A00794C79
:100AB200120D007B017A0079519000687405F07F75
:100AC20010120D77900051E064117017A3E0B42268
:100AD20012A3E0B4330DA3E0B44408A3E0B4550379
:050AE2007F00227F01EE
:010AE70022EC
:100AE800120A82EF70FAC2A77D207F31120F9A7D19
:100AF800FF7FE2120F9A7A007905120D007B017AC6
:100B080000790090006D7405F07F2A120D0A7D01AE
:100B18007F21120F9A7F22120F9A7D1A7F24120FBB
:100B28009AE4FD7F25120F9A7D0F7F26120F9A7F78
:100B380020120F9A7DFF7FE2120F9A7FE1120F9A1F
:030B4800D2A7220F
:100E140090007FEBF0A3EAF0A3E9F0900009EDF075
:100E24007B017A0079051210897F0F120FAB9000B5
:0F0E34007FE0FBA3E0FAA3E0F9120E430210C225
:100DAC00120AE820A2277B017A00790A120C84EF40
:100DBC00701B7B017A00790A7DA5120E1490000B32
:100DCC00E0FFB43102C290EFB43202D2907F0A122B
:040DDC00105980CF5B
:04111000D28080FC0D
:1007A400E4900082F074FFA3F0A3F075900FE5903D
:1007B400640F70030208477F0A121059E590640F12
:1007C4007003020847AF90EF24F5601424FE601A0A
:1007D40014602224077027E4900083F0A3F0801EA5
:1007E400900083E4F0A304F08014900083E4F0A369
:1007F4007402F08009900083E4F0A37403F0759010
:10080400F0AF90EF2450601D24E0602124F06025B7
:100814002470702F900083E0FFA3E0900083CFF05A
:10082400A3EFF0801E900084E02404800E900084E6
:10083400E024088006900084E0240CF0900083E01B
:0B0844003400F0900083E0FEA3E0FF12
:01084F002286
:101014001207A4900089EFF0E090102693F4F58075
:0210240080EE5C
:100850007FBFDFEFF7FBFDFE0102040810204080A0
:1008600000003E4141413E0000000000217F0100A8
:100870000000274545453900000022494949360016
:1008800000000C14247F04000000725151514E00EE
:1008900000003E494949260000004040404F70009A
:1008A00000003649494936000000324949493E00B6
:1008B00000007F484830000000007F484C73000073
:1008C00000007F494949000000003E4141620000AC
:1008D00000007F08087F0000000000FFFF0000000C
:1008E000007F1008047F00007C4848FF48487C00D7
:0808F0007C44FF457D0300007C
:100DE00075807FE490008AF090008AE0FF900850C0
:100DF00093F580EF90086093FF120E707F01120F41
:100E0000ABE4FF120E7090008AE004F0E0C3940897
:040E100040D680CF79
:1005E200E4900086F0E4900085F0900085E0FFC37F
:1005F2009408501EEF90085093F5807FFF120E7002
:100602007FE8121059E4FF120E70900085E004F0AA
:1006120080D8900086E004F0E0C3940340C7E490E1
:100622000086F0E4900085F0900085E0FFC3940816
:100632005029C374079FFFE49400FE74502FF58283
:1006420074083EF583E493F5807FFF120E707FE815
:10065200121059900085E004F080CD900086E004ED
:10066200F0E0C3940340BCE4900086F0E49000857F
:10067200F0900085E0FFC394085029E4F580C3742C
:10068200079FFFE49400FE74582FF58274083EF52C
:1006920083E493FF120E707FE8121059900085E0F8
:1006A20004F080CD900086E004F0E0C3940340BCE7
:1006B200E4900086F0900086E0C3940340030205B4
:1006C200E2E4900085F0900085E0FFC394085019A1
:1006D200E4F580EF90085893FF120E707FE8121035
:1006E20059900085E004F080DD900086E004F080FF
:0106F200C443
:1006F300E490005EF0A3F0900062E475F001120450
:1007030042FEC3E5F094F4EE9401506BE490006074
:10071300F0A3F0C3900061E09408900060E09400BF
:1007230050D5E0FCA3E0FD2450F58274083CF5832A
:10073300E493F58090005EE0FEA3E07803C333CE3C
:1007430033CED8F92460F58274083EF583E5822D13
:10075300F582E5833CF583E493FF120E707F01126B
:100763000FABE4FF120E70900061E004F070A490F0
:100773000060E004F0809CE4900062F0A3F090003D
:100783005FE004F0700690005EE004F0C390005F49
:10079300E0941390005EE0940050030206FA020610
:0107A300F362
:100FAB00AE071FEE6015E4FCFDC3ED940CEC648002
:0B0FBB00948050EC0DBD00010C80EE96
:010FC6002208
:10105900AB07AF031BEF60077F20120FAB80F322B2
:101026003F065B4F666D7D077F6F777C395E797112
:0110360000B9
:100E7000D2B6D2B5E4FEEFC4131313540124FF928B
:100E8000B4EF25E0FFC2B60000D2B60EEEB408E61D
:060E9000C2B50000D2B55E
:010E96002239
:040FF2004100720048
:0B10CE00EF1FAC0670011E4C70F622F4
:0710FD00D288D2A8D2AF2275
:07110400D28AD2AAD2AF2269
:10106900438901758CFC758A18D2A9D2AFD28C221A
:10107900438910758DFC758B18D2ABD2AFD28E22F5
:03000300020F07E2
:100F0700C0E0C0D075D000C004C006C0077FE87E2F
:100F1700031210CE20B202B2A0D007D006D004D060
:040F2700D0D0E03214
:03001300020F2BAE
:100F2B00C0E0C0D075D000C004C006C0077FE87E0B
:100F3B00031210CE20B302B2A0D007D006D004D03B
:040F4B00D0D0E032F0
:03000B00020D3DA6
:080D3D00C0E0C083C082C0D0F9
:100D4500758CFC758A1890006FE004F070069000B1
:100D55006EE004F090006EE0B4030EA3E0B4E80981
:090D650090006EE4F0A3F0B2A0CE
:090D6E00D0D0D082D083D0E03255
:03001B00020BA134
:0D0BA100C0E0C083C082C0D075D000C00786
:100BAE00758DFC758B18900071E004F07006900046
:100BBE0070E004F0900070E0B40322A3E0B4E81DEE
:100BCE00900070E4F0A3F0A3E0FF04F0EF90102685
:0D0BDE0093F4F580900072E0B41002E4F092
:0B0BEB00D007D0D0D082D083D0E03201
:050006001210FD80FE58
:05000E0012110480FE48
:0500160012106980FEDC
:05110B0012107980FEC6
:0510A7001210ACD2A103
:0810AC007F017E02DEFEDFFA87
:0110B4002219
:0F109800D2A01210A7C2A01210ACC2A10210ACBD
:0A10E300C2A01210A7D2A00210ACA8
:020C4200AD07FC
:100C4400E4FBFAEDC4131313540124FF92A0ED2521
:100C5400E0FD1210A7C2A11210AC0BEBB408E4D251
:100C6400A01210ACD2A130A00F0AEAD394C840F667
:0F0C7400C2A11210AC7F0022C2A11210AC7F01EE
:010C8300224E
:100E9700E4FDFCD2A01210ACD2A11210ACEC25E0FC
:100EA700FCA2A0E4334CFC1210ACC2A11210AC0D92
:060EB700EDB408E4AF04F5
:010EBD002212
:100FFB00AC05A9071210987FA0120C42AF01120C7E
:09100B0042AF04120C420210E392
:020F4F00AC07ED
:100F51001210987FA0120C42AF04120C421210988A
:0F0F61007FA1120C42120E97AD071210E3AF05DD
:010F7000225E
:040FF600410077003F
:100A170020B0157F0A12105920B00A900077E0FD28
:100A27007F01120FFB30B0FD20B1157F0A1210595C
:100A370020B10A7F01120F4F900077EFF030B1FD20
:100A470020B2247F0A12105920B219900077E004CF
:100A5700F0E0FF3395E0FED3EF94FFEE64809480DF
:100A67004002E4F030B2FD20B3107F0A1210592083
:0B0A7700B305E4900077F030B3FD22DF
:1008F800900077E0FB3395E0FA7C037DE8AF03FED8
:1009080012040C74262FF58274103EF583E493903C
:100918000073F07C037DE8AF03AE0212040CAA0456
:10092800AB057D647C00AF03AE0212040C74262F65
:10093800F58274103EF583E493900074F07D647C36
:1009480000AF03AE0212040CAA04AB057D0A7C00BA
:10095800AF03AE0212040C74262FF58274103EF514
:1009680083E493900075F07D0A7C00AF03AE021219
:10097800040C74262DF58274103CF583E4939000E2
:0309880076F022E4
:10103700120A171208F87B017A00797312000080F0
:01104700EFB9
:100F7100D3EF9400EE940040147D6E7C00ED1D7063
:0D0F8100011CED4C70F7EF1F70E61E80E3C1
:010F8E002240
:100EBE00C2B77B46AF031BEF70FAD2B7E4FB30B775
:100ECE00117F017E00120F710BEBD3940540EF7F63
:040EDE0000227F016E
:010EE20022ED
:0C0BF600120EBE7F017E00120F717FCC3A
:100C0200E4FBFAC2B7900088E004F0700690008717
:100C1200E004F0EF1392B7900087E4F0A37406F0BB
:100C220090008774FFF5F012044245F070F2D2B7DB
:0F0C3200EFC313FF0BBB00010AEB64084A70C449
:010C41002290
:100CC2007D087C00C2B70FBF0000D2B70FBF000083
:100CD2000FBF0000A2B7E433C43333335480FBE9BF
:100CE200C3134BF97E007F04EF1FAA0670011E4A50
:0D0CF20070F6ED1D70011CED4C70C9AF01D6
:010CFF0022D2
:0810ED00120BF67F44020C0215
:0810F500120BF67FBE020C0293
:100FC700E4FFFE1210ED1210F5120CC290008BEF29
:0A0FD700F0120CC2EFFEE0FDEDFF8A
:010FE10022ED
:0404C700AB07AA06CF
:1004CB00C3EA6480948050169000567440F0EB1B86
:1004DB0070011AEBF4FBEAF4FAAD03FC800AE4902A
:1004EB000056F0AD03AC02EC12022190007812041E
:1004FB0066E4FFFE7DC87C40900078E0F8A3E0F94D
:10050B00A3E0FAA3E0FB120116E4FBFAF9783F1221
:10051B00002512025AAA06AB077C277D10AF03AE4B
:10052B000212040C74262FF58274103EF583E493AB
:10053B00900057F07C277D10AF03AE0212040C7EA7
:10054B00037FE8CFCDCFCECCCE12040C74262FF583
:10055B008274103EF583E493900058F07C037DE8A1
:10056B00AF03AE0212040C7E007F64CFCDCFCECC96
:10057B00CE12040C74262FF58274103EF583E4938F
:10058B004480900059F07C007D64AF03AE021204EE
:10059B000C7E007F0ACFCDCFCECCCE12040C7426AE
:1005AB002FF58274103EF583E49390005AF0AE025F
:1005BB00AF037C007D6412040C7E007F0ACFCDCF8D
:1005CB00CECCCE12040C74262DF58274103CF58320
:0605DB00E49390005BF0C8
:0105E10022F7
:10104800120FC71204C77B017A007956120000807C
:01105800EFA8
:10001E000202C6E86480F8E933E83360110460F048
:10002E00ED33EC337009E8FCE9FDEAFEEBFF220448
:10003E0060DED3EB9FEA9EE99DE8C2E78CF0C2F743
:10004E0095F0400CE8CCF8E9CDF9EACEFAEBCFFB0F
:10005E0012029185D0F05804700320D5B3E80470D5
:10006E00075002B2D50202D092D5EC0460F7E4CC70
:10007E00C0E0C398F8603B94186008400DD0E0FBD8
:10008E000202A8E4FBFAC9FC8028E830E406E4C9C1
:10009E00FBE4CAFCE830E305E4C9CACBFCE854072C
:1000AE006010F8C3E913F9EA13FAEB13FBEC13FC37
:1000BE00D8F130F52FC3E49CFCEF9BFFEE9AFEEDDA
:1000CE0099FDD0E0FBEF4E4D4C701222DB03020285
:1000DE00CDEC2CFCEF33FFEE33FEED33FDED30E7D0
:1000EE00EB0202A8EF2BFFEE3AFEED39FDD0E0FB5E
:1000FE0050130BBB00030202D0ED13FDEE13FEEF07
:08010E0013FFEC13FC0202A830
:10011600EC4D6011E8497017ED33EC3304600DE4E3
:10012600FCFFFEFD22E933E8330470F80202C61232
:10013600029158046009E4CC248150062850090233
:1001460002D02840030202CDC0E0EB4A7044B980D9
:1001560006D0E0FB0202BCEF4E701CBD8008EBFF30
:10016600EAFEE9FD80EBE98DF0A4FEE5F00201FF71
:10017600E9CDF9EAFEEBFFEF89F0A4FCE5F0CE89C4
:10018600F0A42EFFE435F0CD89F0A42DFEE435F081
:100196008067EF4E7005BD80D780C3EF8BF0A4ACAF
:1001A600F0EE8BF0A42CFCE435F0F8EF8AF0A42CEA
:1001B600E5F038FCE433CB8DF0A42CFCE5F03BF8FD
:1001C600EE8AF0A42CFCE5F038F8E433CF89F0A4ED
:1001D6002CFCE5F038CF3400CE89F0A42FFFE5F0F3
:1001E6003EFEE433C98DF0A42EFEE5F039CD8AF04B
:1001F600A42FFFE5F03EFEE43DFD33D0E0FB5007C3
:100206000BBB000F0202D0EC2CFCEF33FFEE33FEEB
:06021600ED33FD0202A819
:10021C0075F020800E75F010800575F0087D007E5D
:10022C00007F003392D530D503120458EC334010C4
:10023C00EF33FFEE33FEED33FDEC33FCD5F0ED2266
:0E024C00E5F0247EA2D513CC92E7CDCEFF22A2
:10025A00EDD2E7CD33EC3392D524814006E4FFFE9C
:10026A00FDFC22FCE4CFCECDCC24E0501174FF80FB
:10027A00EDC3CC13CCCD13CDCE13CECF13CF047098
:07028A00F030D5DE0204583C
:10029100E9D2E7C933E833F892D5EDD2E7CD33ECB3
:0702A10033FC5002B2D5222C
:1002A800EC30E7100FBF000C0EBE00080DBD0004B7
:1002B8000BEB6014A2D5EB13FCED92E7FD2274FF63
:1002C800FCFDFEFF22E480F8A2D574FF13FC7D80BC
:0302D800E480EFD0
:0300000002098B67
:0C098B00787FE4F6D8FD7581070209D2E0
:1002DB00E709F608DFFA8046E709F208DFFA803E05
:1002EB0088828C83E709F0A3DFFA8032E309F608F2
:1002FB00DFFA8078E309F208DFFA807088828C835A
:10030B00E309F0A3DFFA806489828A83E0A3F6080D
:10031B00DFFA805889828A83E0A3F208DFFA804CE7
:10032B0080D280FA80C680D4806980F280338010BE
:10033B0080A680EA809A80A880DA80E280CA803327
:10034B0089828A83ECFAE493A3C8C582C8CCC5839F
:10035B00CCF0A3C8C582C8CCC583CCDFE9DEE7806F
:10036B000D89828A83E493A3F608DFF9ECFAA9F0EE
:10037B00EDFB2289828A83ECFAE0A3C8C582C8CC44
:10038B00C583CCF0A3C8C582C8CCC583CCDFEADE5D
:10039B00E880DB89828A83E493A3F208DFF980CCBF
:1003AB0088F0EF60010E4E60C388F0ED2402B404B8
:1003BB000050B9F582EB2402B4040050AF2323455F
:0603CB00822390032B7356
:1003D100BB010689828A83E0225002E722BBFE022A
:0903E100E32289828A83E493225D
:1003EA00F8BB010DE58229F582E5833AF583E8F049
:1003FA00225006E92582C8F622BBFE05E92582C8F5
:02040A00F222DC
:10040C00C2D5EC30E709B2D5E4C39DFDE49CFCEE0B
:10041C0030E715B2D5E4C39FFFE49EFE120472C30D
:10042C00E49DFDE49CFC800312047230D507C3E408
:06043C009FFFE49EFE227A
:10044200A3F8E0C5F025F0F0E5821582700215836D
:06045200E0C838F0E822CA
:0E045800C3E49FFFE49EFEE49DFDE49CFC22B5
:0C046600ECF0A3EDF0A3EEF0A3EFF02209
:10099700021114E493A3F8E493A34003F68001F251
:1009A70008DFF48029E493A3F85407240CC8C33361
:1009B700C4540F4420C8834004F456800146F6DF30
:1009C700E4800B0102040810204080900FE2E47ECF
:1009D700019360BCA3FF543F30E509541FFEE49325
:1009E700A360010ECF54C025E060A840B8E493A3EC
:1009F700FAE493A3F8E493A3C8C582C8CAC583CA17
:100A0700F0A3C8C582C8CAC583CADFE9DEE780BECE
:010FFA0000F6
:10047200BC000BBE0029EF8DF084FFADF022E4CC6E
:10048200F875F008EF2FFFEE33FEEC33FCEE9DEC37
:10049200984005FCEE9DFE0FD5F0E9E4CEFD22ED7D
:1004A200F8F5F0EE8420D21CFEADF075F008EF2FC7
:1004B200FFED33FD4007985006D5F0F222C398FDB8
:0504C2000FD5F0EA2255
:00000001FF
